{
  "contractName": "TenetProxy",
  "abi": [
    {
      "inputs": [
        {
          "internalType": "contract Tenet",
          "name": "_tenet",
          "type": "address"
        },
        {
          "internalType": "contract TenetMine",
          "name": "_tenetmine",
          "type": "address"
        },
        {
          "internalType": "address",
          "name": "_weth",
          "type": "address"
        },
        {
          "internalType": "address",
          "name": "_wusdt",
          "type": "address"
        }
      ],
      "stateMutability": "nonpayable",
      "type": "constructor"
    },
    {
      "anonymous": false,
      "inputs": [
        {
          "indexed": true,
          "internalType": "address",
          "name": "previousOwner",
          "type": "address"
        },
        {
          "indexed": true,
          "internalType": "address",
          "name": "newOwner",
          "type": "address"
        }
      ],
      "name": "OwnershipTransferred",
      "type": "event"
    },
    {
      "inputs": [],
      "name": "MINLPTOKEN_AMOUNT",
      "outputs": [
        {
          "internalType": "uint256",
          "name": "",
          "type": "uint256"
        }
      ],
      "stateMutability": "view",
      "type": "function",
      "constant": true
    },
    {
      "inputs": [],
      "name": "MINWEALTH_AMOUNT",
      "outputs": [
        {
          "internalType": "uint256",
          "name": "",
          "type": "uint256"
        }
      ],
      "stateMutability": "view",
      "type": "function",
      "constant": true
    },
    {
      "inputs": [],
      "name": "owner",
      "outputs": [
        {
          "internalType": "address",
          "name": "",
          "type": "address"
        }
      ],
      "stateMutability": "view",
      "type": "function",
      "constant": true
    },
    {
      "inputs": [],
      "name": "renounceOwnership",
      "outputs": [],
      "stateMutability": "nonpayable",
      "type": "function"
    },
    {
      "inputs": [],
      "name": "tenet",
      "outputs": [
        {
          "internalType": "contract Tenet",
          "name": "",
          "type": "address"
        }
      ],
      "stateMutability": "view",
      "type": "function",
      "constant": true
    },
    {
      "inputs": [],
      "name": "tenetmine",
      "outputs": [
        {
          "internalType": "contract TenetMine",
          "name": "",
          "type": "address"
        }
      ],
      "stateMutability": "view",
      "type": "function",
      "constant": true
    },
    {
      "inputs": [
        {
          "internalType": "address",
          "name": "newOwner",
          "type": "address"
        }
      ],
      "name": "transferOwnership",
      "outputs": [],
      "stateMutability": "nonpayable",
      "type": "function"
    },
    {
      "inputs": [],
      "name": "weth",
      "outputs": [
        {
          "internalType": "address",
          "name": "",
          "type": "address"
        }
      ],
      "stateMutability": "view",
      "type": "function",
      "constant": true
    },
    {
      "inputs": [],
      "name": "wusdt",
      "outputs": [
        {
          "internalType": "address",
          "name": "",
          "type": "address"
        }
      ],
      "stateMutability": "view",
      "type": "function",
      "constant": true
    },
    {
      "inputs": [],
      "name": "getTenUserPool",
      "outputs": [
        {
          "internalType": "uint256",
          "name": "",
          "type": "uint256"
        },
        {
          "internalType": "uint256",
          "name": "",
          "type": "uint256"
        },
        {
          "internalType": "uint256",
          "name": "",
          "type": "uint256"
        },
        {
          "internalType": "uint256",
          "name": "",
          "type": "uint256"
        },
        {
          "internalType": "uint256",
          "name": "",
          "type": "uint256"
        }
      ],
      "stateMutability": "view",
      "type": "function",
      "constant": true
    },
    {
      "inputs": [],
      "name": "getTenProjectPool",
      "outputs": [
        {
          "internalType": "uint256",
          "name": "",
          "type": "uint256"
        },
        {
          "internalType": "uint256",
          "name": "",
          "type": "uint256"
        },
        {
          "internalType": "uint256",
          "name": "",
          "type": "uint256"
        },
        {
          "internalType": "uint256",
          "name": "",
          "type": "uint256"
        },
        {
          "internalType": "uint256",
          "name": "",
          "type": "uint256"
        }
      ],
      "stateMutability": "view",
      "type": "function",
      "constant": true
    },
    {
      "inputs": [
        {
          "internalType": "uint256",
          "name": "_pid",
          "type": "uint256"
        }
      ],
      "name": "getBonusPool",
      "outputs": [
        {
          "internalType": "uint256",
          "name": "",
          "type": "uint256"
        },
        {
          "internalType": "uint256",
          "name": "",
          "type": "uint256"
        },
        {
          "internalType": "uint256",
          "name": "",
          "type": "uint256"
        },
        {
          "internalType": "uint256",
          "name": "",
          "type": "uint256"
        },
        {
          "internalType": "uint256",
          "name": "",
          "type": "uint256"
        },
        {
          "internalType": "uint256",
          "name": "",
          "type": "uint256"
        }
      ],
      "stateMutability": "view",
      "type": "function",
      "constant": true
    },
    {
      "inputs": [],
      "name": "getTenPoolBasicInfo",
      "outputs": [
        {
          "internalType": "address",
          "name": "",
          "type": "address"
        },
        {
          "internalType": "address",
          "name": "",
          "type": "address"
        },
        {
          "internalType": "address",
          "name": "",
          "type": "address"
        },
        {
          "internalType": "address",
          "name": "",
          "type": "address"
        },
        {
          "internalType": "address",
          "name": "",
          "type": "address"
        },
        {
          "internalType": "uint256",
          "name": "",
          "type": "uint256"
        },
        {
          "internalType": "uint256",
          "name": "",
          "type": "uint256"
        },
        {
          "internalType": "uint256",
          "name": "",
          "type": "uint256"
        },
        {
          "internalType": "string",
          "name": "",
          "type": "string"
        },
        {
          "internalType": "string",
          "name": "",
          "type": "string"
        },
        {
          "internalType": "string",
          "name": "",
          "type": "string"
        }
      ],
      "stateMutability": "view",
      "type": "function",
      "constant": true
    },
    {
      "inputs": [
        {
          "internalType": "uint256",
          "name": "_pid",
          "type": "uint256"
        }
      ],
      "name": "getPoolBasicInfo",
      "outputs": [
        {
          "internalType": "address",
          "name": "",
          "type": "address"
        },
        {
          "internalType": "address",
          "name": "",
          "type": "address"
        },
        {
          "internalType": "address",
          "name": "",
          "type": "address"
        },
        {
          "internalType": "address",
          "name": "",
          "type": "address"
        },
        {
          "internalType": "address",
          "name": "",
          "type": "address"
        },
        {
          "internalType": "uint256",
          "name": "",
          "type": "uint256"
        },
        {
          "internalType": "uint256",
          "name": "",
          "type": "uint256"
        },
        {
          "internalType": "uint256",
          "name": "",
          "type": "uint256"
        },
        {
          "internalType": "string",
          "name": "",
          "type": "string"
        },
        {
          "internalType": "string",
          "name": "",
          "type": "string"
        },
        {
          "internalType": "string",
          "name": "",
          "type": "string"
        }
      ],
      "stateMutability": "view",
      "type": "function",
      "constant": true
    },
    {
      "inputs": [
        {
          "internalType": "contract IUniswapV2Pair",
          "name": "pairAddr",
          "type": "address"
        },
        {
          "internalType": "contract IUniswapV2Factory",
          "name": "factory",
          "type": "address"
        },
        {
          "internalType": "address",
          "name": "token0Addr",
          "type": "address"
        },
        {
          "internalType": "address",
          "name": "token1Addr",
          "type": "address"
        }
      ],
      "name": "getPoolPriceInfo",
      "outputs": [
        {
          "internalType": "uint256",
          "name": "",
          "type": "uint256"
        },
        {
          "internalType": "uint256",
          "name": "",
          "type": "uint256"
        },
        {
          "internalType": "uint256",
          "name": "",
          "type": "uint256"
        },
        {
          "internalType": "uint256",
          "name": "",
          "type": "uint256"
        },
        {
          "internalType": "uint256",
          "name": "",
          "type": "uint256"
        },
        {
          "internalType": "uint256",
          "name": "",
          "type": "uint256"
        }
      ],
      "stateMutability": "view",
      "type": "function",
      "constant": true
    },
    {
      "inputs": [
        {
          "internalType": "contract IUniswapV2Factory",
          "name": "factory",
          "type": "address"
        },
        {
          "internalType": "address",
          "name": "token0Addr",
          "type": "address"
        },
        {
          "internalType": "address",
          "name": "token1Addr",
          "type": "address"
        }
      ],
      "name": "calcTokenPrice",
      "outputs": [
        {
          "internalType": "uint256",
          "name": "",
          "type": "uint256"
        },
        {
          "internalType": "uint256",
          "name": "",
          "type": "uint256"
        },
        {
          "internalType": "uint256",
          "name": "",
          "type": "uint256"
        }
      ],
      "stateMutability": "view",
      "type": "function",
      "constant": true
    },
    {
      "inputs": [
        {
          "internalType": "contract IUniswapV2Factory",
          "name": "factory",
          "type": "address"
        },
        {
          "internalType": "address",
          "name": "token",
          "type": "address"
        },
        {
          "internalType": "address",
          "name": "wealth",
          "type": "address"
        }
      ],
      "name": "calcTokenWealth",
      "outputs": [
        {
          "internalType": "uint256",
          "name": "",
          "type": "uint256"
        }
      ],
      "stateMutability": "view",
      "type": "function",
      "constant": true
    },
    {
      "inputs": [],
      "name": "getTenPerBlockByUser",
      "outputs": [
        {
          "internalType": "uint256",
          "name": "",
          "type": "uint256"
        }
      ],
      "stateMutability": "view",
      "type": "function",
      "constant": true
    },
    {
      "inputs": [
        {
          "internalType": "uint256",
          "name": "_pid",
          "type": "uint256"
        }
      ],
      "name": "getTenPerBlockByProject",
      "outputs": [
        {
          "internalType": "uint256",
          "name": "",
          "type": "uint256"
        }
      ],
      "stateMutability": "view",
      "type": "function",
      "constant": true
    },
    {
      "inputs": [
        {
          "internalType": "uint256",
          "name": "_pid",
          "type": "uint256"
        }
      ],
      "name": "getPendingTenByProject",
      "outputs": [
        {
          "internalType": "uint256",
          "name": "",
          "type": "uint256"
        }
      ],
      "stateMutability": "view",
      "type": "function",
      "constant": true
    },
    {
      "inputs": [
        {
          "internalType": "address",
          "name": "_user",
          "type": "address"
        }
      ],
      "name": "getPendingTenByUser",
      "outputs": [
        {
          "internalType": "uint256",
          "name": "",
          "type": "uint256"
        }
      ],
      "stateMutability": "view",
      "type": "function",
      "constant": true
    },
    {
      "inputs": [
        {
          "internalType": "uint256",
          "name": "_pid",
          "type": "uint256"
        },
        {
          "internalType": "address",
          "name": "_user",
          "type": "address"
        }
      ],
      "name": "getPendingTen",
      "outputs": [
        {
          "internalType": "uint256",
          "name": "",
          "type": "uint256"
        }
      ],
      "stateMutability": "view",
      "type": "function",
      "constant": true
    },
    {
      "inputs": [
        {
          "internalType": "uint256",
          "name": "_pid",
          "type": "uint256"
        },
        {
          "internalType": "address",
          "name": "_user",
          "type": "address"
        }
      ],
      "name": "getPendingToken",
      "outputs": [
        {
          "internalType": "uint256",
          "name": "",
          "type": "uint256"
        }
      ],
      "stateMutability": "view",
      "type": "function",
      "constant": true
    }
  ],
  "bytecode": "0x60806040523480156200001157600080fd5b50604051620047c3380380620047c3833981810160405260808110156200003757600080fd5b81019080805190602001909291908051906020019092919080519060200190929190805190602001909291905050506000620000786200022460201b60201c565b9050806000806101000a81548173ffffffffffffffffffffffffffffffffffffffff021916908373ffffffffffffffffffffffffffffffffffffffff1602179055508073ffffffffffffffffffffffffffffffffffffffff16600073ffffffffffffffffffffffffffffffffffffffff167f8be0079c531659141344cd1fd0a4f28419497f9722a3daafe3b4186f6b6457e060405160405180910390a35083600160006101000a81548173ffffffffffffffffffffffffffffffffffffffff021916908373ffffffffffffffffffffffffffffffffffffffff16021790555082600260006101000a81548173ffffffffffffffffffffffffffffffffffffffff021916908373ffffffffffffffffffffffffffffffffffffffff16021790555081600360006101000a81548173ffffffffffffffffffffffffffffffffffffffff021916908373ffffffffffffffffffffffffffffffffffffffff16021790555080600460006101000a81548173ffffffffffffffffffffffffffffffffffffffff021916908373ffffffffffffffffffffffffffffffffffffffff160217905550505050506200022c565b600033905090565b614587806200023c6000396000f3fe608060405234801561001057600080fd5b506004361061014d5760003560e01c806365b57107116100c3578063b30f0e0d1161007c578063b30f0e0d146109cd578063b79b70eb14610a73578063c5f7624314610ad8578063dffcb5b314610af6578063f2fde38b14610b38578063f98a4f8914610b7c5761014d565b806365b5710714610863578063715018a6146108a55780638da5cb5b146108af5780639118541d146108e3578063a27fef4714610901578063ab06564c146109355761014d565b80633bde949d116101155780633bde949d146105185780633df81c3f1461054c5780633fc8cef31461074d57806344812ba314610781578063460273ec146107e357806357e76b17146108455761014d565b806305889663146101525780631031a073146101aa578063109f4ba11461028557806318e26766146102bf5780633b49af88146104e4575b600080fd5b6101946004803603602081101561016857600080fd5b81019080803573ffffffffffffffffffffffffffffffffffffffff169060200190929190505050610bb6565b6040518082815260200191505060405180910390f35b61024c600480360360808110156101c057600080fd5b81019080803573ffffffffffffffffffffffffffffffffffffffff169060200190929190803573ffffffffffffffffffffffffffffffffffffffff169060200190929190803573ffffffffffffffffffffffffffffffffffffffff169060200190929190803573ffffffffffffffffffffffffffffffffffffffff169060200190929190505050610f88565b60405180878152602001868152602001858152602001848152602001838152602001828152602001965050505050505060405180910390f35b61028d61110e565b604051808681526020018581526020018481526020018381526020018281526020019550505050505060405180910390f35b6102eb600480360360208110156102d557600080fd5b81019080803590602001909291905050506112a7565b604051808c73ffffffffffffffffffffffffffffffffffffffff1681526020018b73ffffffffffffffffffffffffffffffffffffffff1681526020018a73ffffffffffffffffffffffffffffffffffffffff1681526020018973ffffffffffffffffffffffffffffffffffffffff1681526020018873ffffffffffffffffffffffffffffffffffffffff168152602001878152602001868152602001858152602001806020018060200180602001848103845287818151815260200191508051906020019080838360005b838110156103d15780820151818401526020810190506103b6565b50505050905090810190601f1680156103fe5780820380516001836020036101000a031916815260200191505b50848103835286818151815260200191508051906020019080838360005b8381101561043757808201518184015260208101905061041c565b50505050905090810190601f1680156104645780820380516001836020036101000a031916815260200191505b50848103825285818151815260200191508051906020019080838360005b8381101561049d578082015181840152602081019050610482565b50505050905090810190601f1680156104ca5780820380516001836020036101000a031916815260200191505b509e50505050505050505050505050505060405180910390f35b6104ec611b07565b604051808273ffffffffffffffffffffffffffffffffffffffff16815260200191505060405180910390f35b610520611b2d565b604051808273ffffffffffffffffffffffffffffffffffffffff16815260200191505060405180910390f35b610554611b53565b604051808c73ffffffffffffffffffffffffffffffffffffffff1681526020018b73ffffffffffffffffffffffffffffffffffffffff1681526020018a73ffffffffffffffffffffffffffffffffffffffff1681526020018973ffffffffffffffffffffffffffffffffffffffff1681526020018873ffffffffffffffffffffffffffffffffffffffff168152602001878152602001868152602001858152602001806020018060200180602001848103845287818151815260200191508051906020019080838360005b8381101561063a57808201518184015260208101905061061f565b50505050905090810190601f1680156106675780820380516001836020036101000a031916815260200191505b50848103835286818151815260200191508051906020019080838360005b838110156106a0578082015181840152602081019050610685565b50505050905090810190601f1680156106cd5780820380516001836020036101000a031916815260200191505b50848103825285818151815260200191508051906020019080838360005b838110156107065780820151818401526020810190506106eb565b50505050905090810190601f1680156107335780820380516001836020036101000a031916815260200191505b509e50505050505050505050505050505060405180910390f35b6107556123ba565b604051808273ffffffffffffffffffffffffffffffffffffffff16815260200191505060405180910390f35b6107cd6004803603604081101561079757600080fd5b8101908080359060200190929190803573ffffffffffffffffffffffffffffffffffffffff1690602001909291905050506123e0565b6040518082815260200191505060405180910390f35b61082f600480360360408110156107f957600080fd5b8101908080359060200190929190803573ffffffffffffffffffffffffffffffffffffffff1690602001909291905050506126a2565b6040518082815260200191505060405180910390f35b61084d612a63565b6040518082815260200191505060405180910390f35b61088f6004803603602081101561087957600080fd5b8101908080359060200190929190505050612a6f565b6040518082815260200191505060405180910390f35b6108ad612f1c565b005b6108b76130a2565b604051808273ffffffffffffffffffffffffffffffffffffffff16815260200191505060405180910390f35b6108eb6130cb565b6040518082815260200191505060405180910390f35b61090961334d565b604051808273ffffffffffffffffffffffffffffffffffffffff16815260200191505060405180910390f35b6109b76004803603606081101561094b57600080fd5b81019080803573ffffffffffffffffffffffffffffffffffffffff169060200190929190803573ffffffffffffffffffffffffffffffffffffffff169060200190929190803573ffffffffffffffffffffffffffffffffffffffff169060200190929190505050613373565b6040518082815260200191505060405180910390f35b610a4f600480360360608110156109e357600080fd5b81019080803573ffffffffffffffffffffffffffffffffffffffff169060200190929190803573ffffffffffffffffffffffffffffffffffffffff169060200190929190803573ffffffffffffffffffffffffffffffffffffffff16906020019092919050505061369e565b60405180848152602001838152602001828152602001935050505060405180910390f35b610a9f60048036036020811015610a8957600080fd5b810190808035906020019092919050505061379e565b60405180878152602001868152602001858152602001848152602001838152602001828152602001965050505050505060405180910390f35b610ae0613922565b6040518082815260200191505060405180910390f35b610b2260048036036020811015610b0c57600080fd5b810190808035906020019092919050505061392b565b6040518082815260200191505060405180910390f35b610b7a60048036036020811015610b4e57600080fd5b81019080803573ffffffffffffffffffffffffffffffffffffffff169060200190929190505050613e36565b005b610b84614041565b604051808681526020018581526020018481526020018381526020018281526020019550505050505060405180910390f35b6000806000600160009054906101000a900473ffffffffffffffffffffffffffffffffffffffff1673ffffffffffffffffffffffffffffffffffffffff1663b53c183f856040518263ffffffff1660e01b8152600401808273ffffffffffffffffffffffffffffffffffffffff16815260200191505060606040518083038186803b158015610c4457600080fd5b505afa158015610c58573d6000803e3d6000fd5b505050506040513d6060811015610c6e57600080fd5b810190808051906020019092919080519060200190929190805190602001909291905050509250509150600080600080600160009054906101000a900473ffffffffffffffffffffffffffffffffffffffff1673ffffffffffffffffffffffffffffffffffffffff166352316db06040518163ffffffff1660e01b815260040160806040518083038186803b158015610d0657600080fd5b505afa158015610d1a573d6000803e3d6000fd5b505050506040513d6080811015610d3057600080fd5b810190808051906020019092919080519060200190929190805190602001909291908051906020019092919050505093509350935093508343118015610d77575060008614155b15610f3f576000600260009054906101000a900473ffffffffffffffffffffffffffffffffffffffff1673ffffffffffffffffffffffffffffffffffffffff1663c03c810786436040518363ffffffff1660e01b8152600401808381526020018281526020019250505060206040518083038186803b158015610df957600080fd5b505afa158015610e0d573d6000803e3d6000fd5b505050506040513d6020811015610e2357600080fd5b81019080805190602001909291905050509050610efd600160009054906101000a900473ffffffffffffffffffffffffffffffffffffffff1673ffffffffffffffffffffffffffffffffffffffff166317caf6f16040518163ffffffff1660e01b815260040160206040518083038186803b158015610ea157600080fd5b505afa158015610eb5573d6000803e3d6000fd5b505050506040513d6020811015610ecb57600080fd5b8101908080519060200190929190505050610eef85846141da90919063ffffffff16565b61426090919063ffffffff16565b9050610f3b610f2c83610f1e64e8d4a51000856141da90919063ffffffff16565b61426090919063ffffffff16565b856142aa90919063ffffffff16565b9350505b610f7b85610f6d64e8d4a51000610f5f878b6141da90919063ffffffff16565b61426090919063ffffffff16565b61433290919063ffffffff16565b9650505050505050919050565b60008060008060008060008a73ffffffffffffffffffffffffffffffffffffffff166318160ddd6040518163ffffffff1660e01b815260040160206040518083038186803b158015610fd957600080fd5b505afa158015610fed573d6000803e3d6000fd5b505050506040513d602081101561100357600080fd5b810190808051906020019092919050505090506000808c73ffffffffffffffffffffffffffffffffffffffff16630902f1ac6040518163ffffffff1660e01b815260040160606040518083038186803b15801561105f57600080fd5b505afa158015611073573d6000803e3d6000fd5b505050506040513d606081101561108957600080fd5b81019080805190602001909291908051906020019092919080519060200190929190505050506dffffffffffffffffffffffffffff1691506dffffffffffffffffffffffffffff16915060008060006110e38f8f8f61369e565b9250925092508585858585859b509b509b509b509b509b505050505050509499939850945094509450565b6000806000806000806000806000600160009054906101000a900473ffffffffffffffffffffffffffffffffffffffff1673ffffffffffffffffffffffffffffffffffffffff1663ef0fe55d6040518163ffffffff1660e01b815260040160806040518083038186803b15801561118457600080fd5b505afa158015611198573d6000803e3d6000fd5b505050506040513d60808110156111ae57600080fd5b810190808051906020019092919080519060200190929190805190602001909291908051906020019092919050505093509350935093506000600160009054906101000a900473ffffffffffffffffffffffffffffffffffffffff1673ffffffffffffffffffffffffffffffffffffffff166317caf6f16040518163ffffffff1660e01b815260040160206040518083038186803b15801561124f57600080fd5b505afa158015611263573d6000803e3d6000fd5b505050506040513d602081101561127957600080fd5b8101908080519060200190929190505050905084848484849950995099509950995050505050509091929394565b6000806000806000806000806060806060600080600160009054906101000a900473ffffffffffffffffffffffffffffffffffffffff1673ffffffffffffffffffffffffffffffffffffffff16631526fe278f6040518263ffffffff1660e01b8152600401808281526020019150506101c06040518083038186803b15801561132f57600080fd5b505afa158015611343573d6000803e3d6000fd5b505050506040513d6101c081101561135a57600080fd5b8101908080519060200190929190805190602001909291908051906020019092919080519060200190929190805190602001909291908051906020019092919080519060200190929190805190602001909291908051906020019092919080519060200190929190805190602001909291908051906020019092919080519060200190929190805190602001909291905050505050505050505050505050509150915060008273ffffffffffffffffffffffffffffffffffffffff16630dfe16816040518163ffffffff1660e01b815260040160206040518083038186803b15801561144557600080fd5b505afa158015611459573d6000803e3d6000fd5b505050506040513d602081101561146f57600080fd5b8101908080519060200190929190505050905060008373ffffffffffffffffffffffffffffffffffffffff1663d21220a76040518163ffffffff1660e01b815260040160206040518083038186803b1580156114ca57600080fd5b505afa1580156114de573d6000803e3d6000fd5b505050506040513d60208110156114f457600080fd5b810190808051906020019092919050505090508373ffffffffffffffffffffffffffffffffffffffff1663c45a01556040518163ffffffff1660e01b815260040160206040518083038186803b15801561154d57600080fd5b505afa158015611561573d6000803e3d6000fd5b505050506040513d602081101561157757600080fd5b8101908080519060200190929190505050848484848773ffffffffffffffffffffffffffffffffffffffff1663313ce5676040518163ffffffff1660e01b815260040160206040518083038186803b1580156115d257600080fd5b505afa1580156115e6573d6000803e3d6000fd5b505050506040513d60208110156115fc57600080fd5b81019080805190602001909291905050508773ffffffffffffffffffffffffffffffffffffffff1663313ce5676040518163ffffffff1660e01b815260040160206040518083038186803b15801561165357600080fd5b505afa158015611667573d6000803e3d6000fd5b505050506040513d602081101561167d57600080fd5b81019080805190602001909291905050508773ffffffffffffffffffffffffffffffffffffffff1663313ce5676040518163ffffffff1660e01b815260040160206040518083038186803b1580156116d457600080fd5b505afa1580156116e8573d6000803e3d6000fd5b505050506040513d60208110156116fe57600080fd5b81019080805190602001909291905050508a73ffffffffffffffffffffffffffffffffffffffff166395d89b416040518163ffffffff1660e01b815260040160006040518083038186803b15801561175557600080fd5b505afa158015611769573d6000803e3d6000fd5b505050506040513d6000823e3d601f19601f82011682018060405250602081101561179357600080fd5b81019080805160405193929190846401000000008211156117b357600080fd5b838201915060208201858111156117c957600080fd5b82518660018202830111640100000000821117156117e657600080fd5b8083526020830192505050908051906020019080838360005b8381101561181a5780820151818401526020810190506117ff565b50505050905090810190601f1680156118475780820380516001836020036101000a031916815260200191505b506040525050508a73ffffffffffffffffffffffffffffffffffffffff166395d89b416040518163ffffffff1660e01b815260040160006040518083038186803b15801561189457600080fd5b505afa1580156118a8573d6000803e3d6000fd5b505050506040513d6000823e3d601f19601f8201168201806040525060208110156118d257600080fd5b81019080805160405193929190846401000000008211156118f257600080fd5b8382019150602082018581111561190857600080fd5b825186600182028301116401000000008211171561192557600080fd5b8083526020830192505050908051906020019080838360005b8381101561195957808201518184015260208101905061193e565b50505050905090810190601f1680156119865780820380516001836020036101000a031916815260200191505b506040525050508a73ffffffffffffffffffffffffffffffffffffffff166395d89b416040518163ffffffff1660e01b815260040160006040518083038186803b1580156119d357600080fd5b505afa1580156119e7573d6000803e3d6000fd5b505050506040513d6000823e3d601f19601f820116820180604052506020811015611a1157600080fd5b8101908080516040519392919084640100000000821115611a3157600080fd5b83820191506020820185811115611a4757600080fd5b8251866001820283011164010000000082111715611a6457600080fd5b8083526020830192505050908051906020019080838360005b83811015611a98578082015181840152602081019050611a7d565b50505050905090810190601f168015611ac55780820380516001836020036101000a031916815260200191505b506040525050508560ff1695508460ff1694508360ff1693509e509e509e509e509e509e509e509e509e509e509e505050505091939597999b90929496989a50565b600160009054906101000a900473ffffffffffffffffffffffffffffffffffffffff1681565b600460009054906101000a900473ffffffffffffffffffffffffffffffffffffffff1681565b60008060008060008060008060608060606000600160009054906101000a900473ffffffffffffffffffffffffffffffffffffffff1673ffffffffffffffffffffffffffffffffffffffff16635c9f6bab6040518163ffffffff1660e01b815260040160206040518083038186803b158015611bce57600080fd5b505afa158015611be2573d6000803e3d6000fd5b505050506040513d6020811015611bf857600080fd5b810190808051906020019092919050505090506000600160009054906101000a900473ffffffffffffffffffffffffffffffffffffffff1673ffffffffffffffffffffffffffffffffffffffff1663643ceff96040518163ffffffff1660e01b815260040160206040518083038186803b158015611c7557600080fd5b505afa158015611c89573d6000803e3d6000fd5b505050506040513d6020811015611c9f57600080fd5b8101908080519060200190929190505050905060008273ffffffffffffffffffffffffffffffffffffffff16630dfe16816040518163ffffffff1660e01b815260040160206040518083038186803b158015611cfa57600080fd5b505afa158015611d0e573d6000803e3d6000fd5b505050506040513d6020811015611d2457600080fd5b8101908080519060200190929190505050905060008373ffffffffffffffffffffffffffffffffffffffff1663d21220a76040518163ffffffff1660e01b815260040160206040518083038186803b158015611d7f57600080fd5b505afa158015611d93573d6000803e3d6000fd5b505050506040513d6020811015611da957600080fd5b810190808051906020019092919050505090508373ffffffffffffffffffffffffffffffffffffffff1663c45a01556040518163ffffffff1660e01b815260040160206040518083038186803b158015611e0257600080fd5b505afa158015611e16573d6000803e3d6000fd5b505050506040513d6020811015611e2c57600080fd5b8101908080519060200190929190505050848484848773ffffffffffffffffffffffffffffffffffffffff1663313ce5676040518163ffffffff1660e01b815260040160206040518083038186803b158015611e8757600080fd5b505afa158015611e9b573d6000803e3d6000fd5b505050506040513d6020811015611eb157600080fd5b81019080805190602001909291905050508773ffffffffffffffffffffffffffffffffffffffff1663313ce5676040518163ffffffff1660e01b815260040160206040518083038186803b158015611f0857600080fd5b505afa158015611f1c573d6000803e3d6000fd5b505050506040513d6020811015611f3257600080fd5b81019080805190602001909291905050508773ffffffffffffffffffffffffffffffffffffffff1663313ce5676040518163ffffffff1660e01b815260040160206040518083038186803b158015611f8957600080fd5b505afa158015611f9d573d6000803e3d6000fd5b505050506040513d6020811015611fb357600080fd5b81019080805190602001909291905050508a73ffffffffffffffffffffffffffffffffffffffff166395d89b416040518163ffffffff1660e01b815260040160006040518083038186803b15801561200a57600080fd5b505afa15801561201e573d6000803e3d6000fd5b505050506040513d6000823e3d601f19601f82011682018060405250602081101561204857600080fd5b810190808051604051939291908464010000000082111561206857600080fd5b8382019150602082018581111561207e57600080fd5b825186600182028301116401000000008211171561209b57600080fd5b8083526020830192505050908051906020019080838360005b838110156120cf5780820151818401526020810190506120b4565b50505050905090810190601f1680156120fc5780820380516001836020036101000a031916815260200191505b506040525050508a73ffffffffffffffffffffffffffffffffffffffff166395d89b416040518163ffffffff1660e01b815260040160006040518083038186803b15801561214957600080fd5b505afa15801561215d573d6000803e3d6000fd5b505050506040513d6000823e3d601f19601f82011682018060405250602081101561218757600080fd5b81019080805160405193929190846401000000008211156121a757600080fd5b838201915060208201858111156121bd57600080fd5b82518660018202830111640100000000821117156121da57600080fd5b8083526020830192505050908051906020019080838360005b8381101561220e5780820151818401526020810190506121f3565b50505050905090810190601f16801561223b5780820380516001836020036101000a031916815260200191505b506040525050508a73ffffffffffffffffffffffffffffffffffffffff166395d89b416040518163ffffffff1660e01b815260040160006040518083038186803b15801561228857600080fd5b505afa15801561229c573d6000803e3d6000fd5b505050506040513d6000823e3d601f19601f8201168201806040525060208110156122c657600080fd5b81019080805160405193929190846401000000008211156122e657600080fd5b838201915060208201858111156122fc57600080fd5b825186600182028301116401000000008211171561231957600080fd5b8083526020830192505050908051906020019080838360005b8381101561234d578082015181840152602081019050612332565b50505050905090810190601f16801561237a5780820380516001836020036101000a031916815260200191505b506040525050508560ff1695508460ff1694508360ff1693509e509e509e509e509e509e509e509e509e509e509e5050505050909192939495969798999a565b600360009054906101000a900473ffffffffffffffffffffffffffffffffffffffff1681565b6000806123ec8461392b565b9050600080600160009054906101000a900473ffffffffffffffffffffffffffffffffffffffff1673ffffffffffffffffffffffffffffffffffffffff16631526fe27876040518263ffffffff1660e01b8152600401808281526020019150506101c06040518083038186803b15801561246557600080fd5b505afa158015612479573d6000803e3d6000fd5b505050506040513d6101c081101561249057600080fd5b8101908080519060200190929190805190602001909291908051906020019092919080519060200190929190805190602001909291908051906020019092919080519060200190929190805190602001909291908051906020019092919080519060200190929190805190602001909291908051906020019092919080519060200190929190805190602001909291905050505050505050505050955050945050505061256f6125608361255264e8d4a51000876141da90919063ffffffff16565b61426090919063ffffffff16565b826142aa90919063ffffffff16565b9050600080600160009054906101000a900473ffffffffffffffffffffffffffffffffffffffff1673ffffffffffffffffffffffffffffffffffffffff16635e61b98489896040518363ffffffff1660e01b8152600401808381526020018273ffffffffffffffffffffffffffffffffffffffff1681526020019250505060606040518083038186803b15801561260557600080fd5b505afa158015612619573d6000803e3d6000fd5b505050506040513d606081101561262f57600080fd5b8101908080519060200190929190805190602001909291908051906020019092919050505092505091506126958161268764e8d4a5100061267987876141da90919063ffffffff16565b61426090919063ffffffff16565b61433290919063ffffffff16565b9550505050505092915050565b600080600080600080600080600160009054906101000a900473ffffffffffffffffffffffffffffffffffffffff1673ffffffffffffffffffffffffffffffffffffffff16631526fe278b6040518263ffffffff1660e01b8152600401808281526020019150506101c06040518083038186803b15801561272257600080fd5b505afa158015612736573d6000803e3d6000fd5b505050506040513d6101c081101561274d57600080fd5b810190808051906020019092919080519060200190929190805190602001909291908051906020019092919080519060200190929190805190602001909291908051906020019092919080519060200190929190805190602001909291908051906020019092919080519060200190929190805190602001909291908051906020019092919080519060200190929190505050509c509c509c509c50505050509850985098505050600080600160009054906101000a900473ffffffffffffffffffffffffffffffffffffffff1673ffffffffffffffffffffffffffffffffffffffff16635e61b9848d8d6040518363ffffffff1660e01b8152600401808381526020018273ffffffffffffffffffffffffffffffffffffffff1681526020019250505060606040518083038186803b15801561288957600080fd5b505afa15801561289d573d6000803e3d6000fd5b505050506040513d60608110156128b357600080fd5b81019080805190602001909291908051906020019092919080519060200190929190505050509150915088431180156128ed575060008814155b15612a165760006129d4600260009054906101000a900473ffffffffffffffffffffffffffffffffffffffff1673ffffffffffffffffffffffffffffffffffffffff1663bf777d918c438b8a8a6040518663ffffffff1660e01b8152600401808681526020018581526020018481526020018381526020018281526020019550505050505060206040518083038186803b15801561298a57600080fd5b505afa15801561299e573d6000803e3d6000fd5b505050506040513d60208110156129b457600080fd5b8101908080519060200190929190505050876141da90919063ffffffff16565b9050612a12612a038a6129f564e8d4a51000856141da90919063ffffffff16565b61426090919063ffffffff16565b896142aa90919063ffffffff16565b9750505b612a5281612a4464e8d4a51000612a368b876141da90919063ffffffff16565b61426090919063ffffffff16565b61433290919063ffffffff16565b995050505050505050505092915050565b67016345785d8a000081565b600080600160009054906101000a900473ffffffffffffffffffffffffffffffffffffffff1673ffffffffffffffffffffffffffffffffffffffff16631526fe27846040518263ffffffff1660e01b8152600401808281526020019150506101c06040518083038186803b158015612ae657600080fd5b505afa158015612afa573d6000803e3d6000fd5b505050506040513d6101c0811015612b1157600080fd5b8101908080519060200190929190805190602001909291908051906020019092919080519060200190929190805190602001909291908051906020019092919080519060200190929190805190602001909291908051906020019092919080519060200190929190805190602001909291908051906020019092919080519060200190929190805190602001909291905050505050505050505050505093505050506402540be400811015612bca576000915050612f17565b6000600160009054906101000a900473ffffffffffffffffffffffffffffffffffffffff1673ffffffffffffffffffffffffffffffffffffffff16630d2e2992856040518263ffffffff1660e01b815260040180828152602001915050604080518083038186803b158015612c3e57600080fd5b505afa158015612c52573d6000803e3d6000fd5b505050506040513d6040811015612c6857600080fd5b8101908080519060200190929190805190602001909291905050505090506000811415612c9a57600092505050612f17565b600080600160009054906101000a900473ffffffffffffffffffffffffffffffffffffffff1673ffffffffffffffffffffffffffffffffffffffff1663ef0fe55d6040518163ffffffff1660e01b815260040160806040518083038186803b158015612d0557600080fd5b505afa158015612d19573d6000803e3d6000fd5b505050506040513d6080811015612d2f57600080fd5b81019080805190602001909291908051906020019092919080519060200190929190805190602001909291905050509350935050506000600260009054906101000a900473ffffffffffffffffffffffffffffffffffffffff1673ffffffffffffffffffffffffffffffffffffffff1663c03c810760014303436040518363ffffffff1660e01b8152600401808381526020018281526020019250505060206040518083038186803b158015612de457600080fd5b505afa158015612df8573d6000803e3d6000fd5b505050506040513d6020811015612e0e57600080fd5b81019080805190602001909291905050509050612ee8600160009054906101000a900473ffffffffffffffffffffffffffffffffffffffff1673ffffffffffffffffffffffffffffffffffffffff166317caf6f16040518163ffffffff1660e01b815260040160206040518083038186803b158015612e8c57600080fd5b505afa158015612ea0573d6000803e3d6000fd5b505050506040513d6020811015612eb657600080fd5b8101908080519060200190929190505050612eda85846141da90919063ffffffff16565b61426090919063ffffffff16565b9050612f0f85612f01848461426090919063ffffffff16565b61426090919063ffffffff16565b955050505050505b919050565b612f2461437c565b73ffffffffffffffffffffffffffffffffffffffff1660008054906101000a900473ffffffffffffffffffffffffffffffffffffffff1673ffffffffffffffffffffffffffffffffffffffff1614612fe4576040517f08c379a00000000000000000000000000000000000000000000000000000000081526004018080602001828103825260208152602001807f4f776e61626c653a2063616c6c6572206973206e6f7420746865206f776e657281525060200191505060405180910390fd5b600073ffffffffffffffffffffffffffffffffffffffff1660008054906101000a900473ffffffffffffffffffffffffffffffffffffffff1673ffffffffffffffffffffffffffffffffffffffff167f8be0079c531659141344cd1fd0a4f28419497f9722a3daafe3b4186f6b6457e060405160405180910390a360008060006101000a81548173ffffffffffffffffffffffffffffffffffffffff021916908373ffffffffffffffffffffffffffffffffffffffff160217905550565b60008060009054906101000a900473ffffffffffffffffffffffffffffffffffffffff16905090565b6000806000600160009054906101000a900473ffffffffffffffffffffffffffffffffffffffff1673ffffffffffffffffffffffffffffffffffffffff166352316db06040518163ffffffff1660e01b815260040160806040518083038186803b15801561313857600080fd5b505afa15801561314c573d6000803e3d6000fd5b505050506040513d608081101561316257600080fd5b810190808051906020019092919080519060200190929190805190602001909291908051906020019092919050505093509350505060008114156131ab5760009250505061334a565b6000600260009054906101000a900473ffffffffffffffffffffffffffffffffffffffff1673ffffffffffffffffffffffffffffffffffffffff1663c03c810760014303436040518363ffffffff1660e01b8152600401808381526020018281526020019250505060206040518083038186803b15801561322b57600080fd5b505afa15801561323f573d6000803e3d6000fd5b505050506040513d602081101561325557600080fd5b8101908080519060200190929190505050905061332f600160009054906101000a900473ffffffffffffffffffffffffffffffffffffffff1673ffffffffffffffffffffffffffffffffffffffff166317caf6f16040518163ffffffff1660e01b815260040160206040518083038186803b1580156132d357600080fd5b505afa1580156132e7573d6000803e3d6000fd5b505050506040513d60208110156132fd57600080fd5b810190808051906020019092919050505061332185846141da90919063ffffffff16565b61426090919063ffffffff16565b9050613344828261426090919063ffffffff16565b93505050505b90565b600260009054906101000a900473ffffffffffffffffffffffffffffffffffffffff1681565b60008173ffffffffffffffffffffffffffffffffffffffff168373ffffffffffffffffffffffffffffffffffffffff1614156133b95767016345785d8a00009050613697565b60008473ffffffffffffffffffffffffffffffffffffffff1663e6a4390585856040518363ffffffff1660e01b8152600401808373ffffffffffffffffffffffffffffffffffffffff1681526020018273ffffffffffffffffffffffffffffffffffffffff1681526020019250505060206040518083038186803b15801561344057600080fd5b505afa158015613454573d6000803e3d6000fd5b505050506040513d602081101561346a57600080fd5b81019080805190602001909291905050509050600073ffffffffffffffffffffffffffffffffffffffff168173ffffffffffffffffffffffffffffffffffffffff1614156134bc576000915050613697565b6000808273ffffffffffffffffffffffffffffffffffffffff16630902f1ac6040518163ffffffff1660e01b815260040160606040518083038186803b15801561350557600080fd5b505afa158015613519573d6000803e3d6000fd5b505050506040513d606081101561352f57600080fd5b81019080805190602001909291908051906020019092919080519060200190929190505050506dffffffffffffffffffffffffffff1691506dffffffffffffffffffffffffffff1691508273ffffffffffffffffffffffffffffffffffffffff16630dfe16816040518163ffffffff1660e01b815260040160206040518083038186803b1580156135bf57600080fd5b505afa1580156135d3573d6000803e3d6000fd5b505050506040513d60208110156135e957600080fd5b810190808051906020019092919050505073ffffffffffffffffffffffffffffffffffffffff168673ffffffffffffffffffffffffffffffffffffffff1614156136645761365a8261364c67016345785d8a0000846141da90919063ffffffff16565b61426090919063ffffffff16565b9350505050613697565b6136918161368367016345785d8a0000856141da90919063ffffffff16565b61426090919063ffffffff16565b93505050505b9392505050565b600080600080600090506000806136d88989600360009054906101000a900473ffffffffffffffffffffffffffffffffffffffff16613373565b91506000821415613789576137108988600360009054906101000a900473ffffffffffffffffffffffffffffffffffffffff16613373565b90506000811415613788576001925061374c8989600460009054906101000a900473ffffffffffffffffffffffffffffffffffffffff16613373565b91506000821415613787576137848988600460009054906101000a900473ffffffffffffffffffffffffffffffffffffffff16613373565b90505b5b5b82828295509550955050505093509350939050565b6000806000806000806000806000806000600160009054906101000a900473ffffffffffffffffffffffffffffffffffffffff1673ffffffffffffffffffffffffffffffffffffffff16631526fe278d6040518263ffffffff1660e01b8152600401808281526020019150506101c06040518083038186803b15801561382357600080fd5b505afa158015613837573d6000803e3d6000fd5b505050506040513d6101c081101561384e57600080fd5b8101908080519060200190929190805190602001909291908051906020019092919080519060200190929190805190602001909291908051906020019092919080519060200190929190805190602001909291908051906020019092919080519060200190929190805190602001909291908051906020019092919080519060200190929190805190602001909291905050509d50505050505050509650965096509650505060006138ff8d612a6f565b90508585858584869b509b509b509b509b509b5050505050505091939550919395565b6402540be40081565b600080600160009054906101000a900473ffffffffffffffffffffffffffffffffffffffff1673ffffffffffffffffffffffffffffffffffffffff16631526fe27846040518263ffffffff1660e01b8152600401808281526020019150506101c06040518083038186803b1580156139a257600080fd5b505afa1580156139b6573d6000803e3d6000fd5b505050506040513d6101c08110156139cd57600080fd5b8101908080519060200190929190805190602001909291908051906020019092919080519060200190929190805190602001909291908051906020019092919080519060200190929190805190602001909291908051906020019092919080519060200190929190805190602001909291908051906020019092919080519060200190929190805190602001909291905050505050505050505050505093505050506402540be400811015613a86576000915050613e31565b600080600160009054906101000a900473ffffffffffffffffffffffffffffffffffffffff1673ffffffffffffffffffffffffffffffffffffffff16630d2e2992866040518263ffffffff1660e01b815260040180828152602001915050604080518083038186803b158015613afb57600080fd5b505afa158015613b0f573d6000803e3d6000fd5b505050506040513d6040811015613b2557600080fd5b81019080805190602001909291908051906020019092919050505091509150600080600080600160009054906101000a900473ffffffffffffffffffffffffffffffffffffffff1673ffffffffffffffffffffffffffffffffffffffff1663ef0fe55d6040518163ffffffff1660e01b815260040160806040518083038186803b158015613bb257600080fd5b505afa158015613bc6573d6000803e3d6000fd5b505050506040513d6080811015613bdc57600080fd5b810190808051906020019092919080519060200190929190805190602001909291908051906020019092919050505093509350935093508343118015613c23575060008614155b15613deb576000600260009054906101000a900473ffffffffffffffffffffffffffffffffffffffff1673ffffffffffffffffffffffffffffffffffffffff1663c03c810786436040518363ffffffff1660e01b8152600401808381526020018281526020019250505060206040518083038186803b158015613ca557600080fd5b505afa158015613cb9573d6000803e3d6000fd5b505050506040513d6020811015613ccf57600080fd5b81019080805190602001909291905050509050613da9600160009054906101000a900473ffffffffffffffffffffffffffffffffffffffff1673ffffffffffffffffffffffffffffffffffffffff166317caf6f16040518163ffffffff1660e01b815260040160206040518083038186803b158015613d4d57600080fd5b505afa158015613d61573d6000803e3d6000fd5b505050506040513d6020811015613d7757600080fd5b8101908080519060200190929190505050613d9b85846141da90919063ffffffff16565b61426090919063ffffffff16565b9050613de7613dd883613dca64e8d4a51000856141da90919063ffffffff16565b61426090919063ffffffff16565b856142aa90919063ffffffff16565b9350505b613e2785613e1964e8d4a51000613e0b878b6141da90919063ffffffff16565b61426090919063ffffffff16565b61433290919063ffffffff16565b9750505050505050505b919050565b613e3e61437c565b73ffffffffffffffffffffffffffffffffffffffff1660008054906101000a900473ffffffffffffffffffffffffffffffffffffffff1673ffffffffffffffffffffffffffffffffffffffff1614613efe576040517f08c379a00000000000000000000000000000000000000000000000000000000081526004018080602001828103825260208152602001807f4f776e61626c653a2063616c6c6572206973206e6f7420746865206f776e657281525060200191505060405180910390fd5b600073ffffffffffffffffffffffffffffffffffffffff168173ffffffffffffffffffffffffffffffffffffffff161415613f84576040517f08c379a000000000000000000000000000000000000000000000000000000000815260040180806020018281038252602681526020018061450b6026913960400191505060405180910390fd5b8073ffffffffffffffffffffffffffffffffffffffff1660008054906101000a900473ffffffffffffffffffffffffffffffffffffffff1673ffffffffffffffffffffffffffffffffffffffff167f8be0079c531659141344cd1fd0a4f28419497f9722a3daafe3b4186f6b6457e060405160405180910390a3806000806101000a81548173ffffffffffffffffffffffffffffffffffffffff021916908373ffffffffffffffffffffffffffffffffffffffff16021790555050565b6000806000806000806000806000600160009054906101000a900473ffffffffffffffffffffffffffffffffffffffff1673ffffffffffffffffffffffffffffffffffffffff166352316db06040518163ffffffff1660e01b815260040160806040518083038186803b1580156140b757600080fd5b505afa1580156140cb573d6000803e3d6000fd5b505050506040513d60808110156140e157600080fd5b810190808051906020019092919080519060200190929190805190602001909291908051906020019092919050505093509350935093506000600160009054906101000a900473ffffffffffffffffffffffffffffffffffffffff1673ffffffffffffffffffffffffffffffffffffffff166317caf6f16040518163ffffffff1660e01b815260040160206040518083038186803b15801561418257600080fd5b505afa158015614196573d6000803e3d6000fd5b505050506040513d60208110156141ac57600080fd5b8101908080519060200190929190505050905084848484849950995099509950995050505050509091929394565b6000808314156141ed576000905061425a565b60008284029050828482816141fe57fe5b0414614255576040517f08c379a00000000000000000000000000000000000000000000000000000000081526004018080602001828103825260218152602001806145316021913960400191505060405180910390fd5b809150505b92915050565b60006142a283836040518060400160405280601a81526020017f536166654d6174683a206469766973696f6e206279207a65726f000000000000815250614384565b905092915050565b600080828401905083811015614328576040517f08c379a000000000000000000000000000000000000000000000000000000000815260040180806020018281038252601b8152602001807f536166654d6174683a206164646974696f6e206f766572666c6f77000000000081525060200191505060405180910390fd5b8091505092915050565b600061437483836040518060400160405280601e81526020017f536166654d6174683a207375627472616374696f6e206f766572666c6f77000081525061444a565b905092915050565b600033905090565b60008083118290614430576040517f08c379a00000000000000000000000000000000000000000000000000000000081526004018080602001828103825283818151815260200191508051906020019080838360005b838110156143f55780820151818401526020810190506143da565b50505050905090810190601f1680156144225780820380516001836020036101000a031916815260200191505b509250505060405180910390fd5b50600083858161443c57fe5b049050809150509392505050565b60008383111582906144f7576040517f08c379a00000000000000000000000000000000000000000000000000000000081526004018080602001828103825283818151815260200191508051906020019080838360005b838110156144bc5780820151818401526020810190506144a1565b50505050905090810190601f1680156144e95780820380516001836020036101000a031916815260200191505b509250505060405180910390fd5b506000838503905080915050939250505056fe4f776e61626c653a206e6577206f776e657220697320746865207a65726f2061646472657373536166654d6174683a206d756c7469706c69636174696f6e206f766572666c6f77a26469706673582212202c5ecaf99336110d25352bba886d60fb9144d1f4d574db7a6c1b9829e5386a5d64736f6c634300060c0033",
  "immutableReferences": {},
  "source": "// SPDX-License-Identifier: MIT\n\npragma solidity 0.6.12;\n\nimport \"./openzeppelin/contracts/token/ERC20/ERC20.sol\";\nimport \"./openzeppelin/contracts/token/ERC20/IERC20.sol\";\nimport \"./openzeppelin/contracts/token/ERC20/SafeERC20.sol\";\nimport \"./openzeppelin/contracts/utils/EnumerableSet.sol\";\nimport \"./openzeppelin/contracts/math/SafeMath.sol\";\nimport \"./openzeppelin/contracts/access/Ownable.sol\";\nimport \"./uniswapv2/IUniswapV2Pair.sol\";\nimport \"./uniswapv2/IUniswapV2Factory.sol\";\nimport \"./TenetMine.sol\";\nimport \"./Tenet.sol\";\n\ncontract TenetProxy is Ownable {\n    using SafeMath for uint256;\n    using SafeERC20 for IERC20;\n    uint256 public constant MINLPTOKEN_AMOUNT = 10000000000;\n    uint256 public constant MINWEALTH_AMOUNT = 100000000000000000;\n    Tenet public tenet;\n    TenetMine public tenetmine;\n    address public weth;\n    address public wusdt;\n\n    constructor(Tenet _tenet,TenetMine _tenetmine,address _weth,address _wusdt) public {\n        tenet = _tenet;\n        tenetmine = _tenetmine;\n        weth = _weth;\n        wusdt = _wusdt;\n    }\n    // tenpool\n    function getTenUserPool() external view returns (uint256,uint256,uint256,uint256,uint256) {\n        (uint256 lastRewardBlock,uint256 accTenPerShare,uint256 allocPoint,uint256 lpTokenTotalAmount) = tenet.tenUserPool();\n        uint256 totalAllocPoint = tenet.totalAllocPoint();\n        return (lastRewardBlock,accTenPerShare,allocPoint,lpTokenTotalAmount,totalAllocPoint);\n    }\n    function getTenProjectPool() external view returns (uint256,uint256,uint256,uint256,uint256) {\n        (uint256 lastRewardBlock,uint256 accTenPerShare,uint256 allocPoint,uint256 lpTokenTotalAmount) = tenet.tenProjectPool();\n        uint256 totalAllocPoint = tenet.totalAllocPoint();\n        return (lastRewardBlock,accTenPerShare,allocPoint,lpTokenTotalAmount,totalAllocPoint);\n    }\n    function getBonusPool(uint256 _pid) external view returns (uint256,uint256,uint256,uint256,uint256,uint256) {\n        (, ,uint256 lastRewardBlock,uint256 lpTokenTotalAmount,uint256 accTokenPerShare,uint256 accTenPerShare, , , , , , , ,uint256 userCount) = tenet.poolInfo(_pid);\n        uint256 newBlockTen = getTenPerBlockByProject(_pid);\n        return (lastRewardBlock,lpTokenTotalAmount,accTokenPerShare,accTenPerShare,newBlockTen,userCount);\n    }\n    function getTenPoolBasicInfo() external view returns (address,address,address,address,address,uint256,uint256,uint256,string memory,string memory,string memory) {\n        IUniswapV2Pair pairAddr = IUniswapV2Pair(address(tenet.lpTokenTen()));\n        ERC20 tokenAddr = ERC20(address(tenet.ten()));\n        ERC20 token0Addr = ERC20(IUniswapV2Pair(address(pairAddr)).token0());\n        ERC20 token1Addr = ERC20(IUniswapV2Pair(address(pairAddr)).token1());\n        return (IUniswapV2Pair(address(pairAddr)).factory(),address(pairAddr),address(tokenAddr),address(token0Addr),address(token1Addr),tokenAddr.decimals(),token0Addr.decimals(),token1Addr.decimals(),tokenAddr.symbol(),token0Addr.symbol(),token1Addr.symbol());\n    }\n    // pool\n    function getPoolBasicInfo(uint256 _pid) external view returns (address,address,address,address,address,uint256,uint256,uint256,string memory,string memory,string memory) {\n        (IERC20 pairAddr,IERC20 tokenAddr, , , , , , , , , , , ,) = tenet.poolInfo(_pid);\n        ERC20 token0Addr = ERC20(IUniswapV2Pair(address(pairAddr)).token0());\n        ERC20 token1Addr = ERC20(IUniswapV2Pair(address(pairAddr)).token1());\n        return (IUniswapV2Pair(address(pairAddr)).factory(),address(pairAddr),address(tokenAddr),address(token0Addr),address(token1Addr),ERC20(address(tokenAddr)).decimals(),ERC20(address(token0Addr)).decimals(),ERC20(address(token1Addr)).decimals(),ERC20(address(tokenAddr)).symbol(),token0Addr.symbol(),token1Addr.symbol());\n    }\n    // pooltoken\n    function getPoolPriceInfo(IUniswapV2Pair pairAddr,IUniswapV2Factory factory,address token0Addr,address token1Addr) external view returns (uint256,uint256,uint256,uint256,uint256,uint256) {\n        uint256 lpSupply = pairAddr.totalSupply();\n        (uint reserve0, uint reserve1,) = pairAddr.getReserves();\n        //IUniswapV2Factory factory = IUniswapV2Factory(pairAddr.factory());\n        (uint256 pricetype,uint256 price0,uint256 price1) = calcTokenPrice(factory,token0Addr,token1Addr);     \n        return (lpSupply,reserve0,reserve1,pricetype,price0,price1);\n    }\n    // tokenwealth\n    function calcTokenPrice(IUniswapV2Factory factory,address token0Addr,address token1Addr) public view returns (uint256,uint256,uint256) {\n        uint256 pricetype = 0;\n        uint256 price0 = 0;\n        uint256 price1 = 0;     \n        price0 = calcTokenWealth(factory,token0Addr,weth);\n        if(price0 == 0){\n            price1 = calcTokenWealth(factory,token1Addr,weth);\n            if(price1 == 0){\n                pricetype = 1;//usd\n                price0 = calcTokenWealth(factory,token0Addr,wusdt);\n                if(price0 == 0){\n                    price1 = calcTokenWealth(factory,token1Addr,wusdt);\n                }\n            }\n        }\n        return (pricetype,price0,price1);    \n    }\n    // tokenwealth\n    function calcTokenWealth(IUniswapV2Factory factory,address token,address wealth) public view returns (uint256) {\n        if (token == wealth) {\n           return MINWEALTH_AMOUNT;\n        }\n        IUniswapV2Pair pair = IUniswapV2Pair(factory.getPair(token, wealth));\n        if (address(pair) == address(0)) {\n            return 0;\n        }\n        (uint reserve0, uint reserve1,) = pair.getReserves();\n        if(token == pair.token0()){\n            return reserve1.mul(MINWEALTH_AMOUNT).div(reserve0);\n        }\n        return reserve0.mul(MINWEALTH_AMOUNT).div(reserve1);\n    }\n    // tenlptonkentenlptonkenTEN\n    function getTenPerBlockByUser() external view returns (uint256) {\n        (,,uint256 allocPoint,uint256 lpSupply) = tenet.tenUserPool();\n        if (lpSupply == 0) {//tenlptoken\n            return 0;\n        }        \n        uint256 tenReward = tenetmine.calcMineTenReward(block.number-1, block.number);\n        tenReward = tenReward.mul(allocPoint).div(tenet.totalAllocPoint());\n        return tenReward.div(lpSupply);\n    }\n    // tenlptonken,tenlptokenlptokenTEN\n    function getTenPerBlockByProject(uint _pid) public view returns (uint256) {\n        //(IERC20 lpToken,IERC20 tokenAddr,uint256 lastRewardBlock,uint256 lpTokenAmount,uint256 e,uint256 f,address g,uint256 h,uint256 i,uint256 j,uint256 k,uint256 l,uint256 m,uint256 n) = tenet.poolInfo(_pid);\n        ( , , ,uint256 lpTokenAmount, , , , , , , , , ,) = tenet.poolInfo(_pid);\n        if(lpTokenAmount < MINLPTOKEN_AMOUNT){//\n            return 0;\n        }\n        (uint256 lpSupply,) = tenet.userInfoProjectPool(_pid);\n        if (lpSupply == 0) {//tenlptoken\n            return 0;\n        }\n        ( , ,uint256 allocPoint,uint256 tenLPTokenAmount) = tenet.tenProjectPool();\n        uint256 tenReward = tenetmine.calcMineTenReward(block.number-1, block.number);\n        tenReward = tenReward.mul(allocPoint).div(tenet.totalAllocPoint());\n        return tenReward.div(tenLPTokenAmount).div(lpTokenAmount);\n    }\n    // lptenTEN\n    function getPendingTenByProject(uint _pid) public view returns (uint256) {\n        ( , , ,uint256 lpTokenTotalAmount, , , , , , , , , ,) = tenet.poolInfo(_pid);        \n        if(lpTokenTotalAmount < MINLPTOKEN_AMOUNT){\n            return 0;\n        }\n        (uint256 lpSupply,uint256 rewardTenDebt) = tenet.userInfoProjectPool(_pid);\n        (uint256 lastRewardBlock,uint256 accTenPerShare ,uint256 allocPoint,uint256 tenlpTokenTotalAmount) = tenet.tenProjectPool();\n        if (block.number > lastRewardBlock && lpSupply != 0) {\n            uint256 tenReward = tenetmine.calcMineTenReward(lastRewardBlock, block.number);\n            tenReward = tenReward.mul(allocPoint).div(tenet.totalAllocPoint());\n            accTenPerShare = accTenPerShare.add(tenReward.mul(1e12).div(tenlpTokenTotalAmount));\n        }\n        return lpSupply.mul(accTenPerShare).div(1e12).sub(rewardTenDebt);\n    }\n    // lptenTEN\n    function getPendingTenByUser(address _user) external view returns (uint256) {\n        (uint256 lpSupply, ,uint256 rewardTenDebt) = tenet.userInfoUserPool(_user);\n        (uint256 lastRewardBlock,uint256 accTenPerShare ,uint256 allocPoint,uint256 tenlpTokenTotalAmount) = tenet.tenUserPool();\n        if (block.number > lastRewardBlock && lpSupply != 0) {\n             uint256 tenReward = tenetmine.calcMineTenReward(lastRewardBlock, block.number);\n            tenReward = tenReward.mul(allocPoint).div(tenet.totalAllocPoint());\n            accTenPerShare = accTenPerShare.add(tenReward.mul(1e12).div(tenlpTokenTotalAmount));\n        }\n        return lpSupply.mul(accTenPerShare).div(1e12).sub(rewardTenDebt);\n    }\n\n    // TEN\n    function getPendingTen(uint256 _pid, address _user) external view returns (uint256) {\n        uint256 pending = getPendingTenByProject(_pid);        \n        ( , , ,uint256 lpTokenTotalAmount, ,uint256 accTenPerShare, , , , , , , ,) = tenet.poolInfo(_pid);\n        accTenPerShare = accTenPerShare.add(pending.mul(1e12).div(lpTokenTotalAmount));\n        (uint256 amount, ,uint256 rewardTenDebt) = tenet.getPoolUser(_pid,_user);\n        return amount.mul(accTenPerShare).div(1e12).sub(rewardTenDebt);\n    }\n\n    // \n    function getPendingToken(uint256 _pid, address _user) external view returns (uint256) {\n        ( , ,uint256 lastRewardBlock,uint256 lpTokenTotalAmount,uint256 accTokenPerShare, , , , ,uint256 endBlock,uint256 tokenPerBlock,uint256 tokenBonusEndBlock,uint256 tokenBonusMultipler,) = tenet.poolInfo(_pid);\n        (uint256 amount,uint256 rewardTokenDebt,) = tenet.getPoolUser(_pid,_user);\n        if (block.number > lastRewardBlock && lpTokenTotalAmount != 0) {\n            uint256 tokenReward = tokenPerBlock.mul(tenetmine.getMultiplier(lastRewardBlock, block.number,endBlock,tokenBonusEndBlock,tokenBonusMultipler));\n            accTokenPerShare = accTokenPerShare.add(tokenReward.mul(1e12).div(lpTokenTotalAmount));\n        }\n        return amount.mul(accTokenPerShare).div(1e12).sub(rewardTokenDebt);\n    }                \n}",
  "sourcePath": "E:/code/truffle/tenet/contracts/TenetProxy.sol",
  "compiler": {
    "name": "solc",
    "version": "0.6.12+commit.27d51765.Emscripten.clang"
  },
  "schemaVersion": "3.2.4",
  "updatedAt": "2020-09-22T09:26:17.580Z",
  "networkType": "ethereum",
  "devdoc": {
    "kind": "dev",
    "methods": {
      "owner()": {
        "details": "Returns the address of the current owner."
      },
      "renounceOwnership()": {
        "details": "Leaves the contract without owner. It will not be possible to call `onlyOwner` functions anymore. Can only be called by the current owner. NOTE: Renouncing ownership will leave the contract without an owner, thereby removing any functionality that is only available to the owner."
      },
      "transferOwnership(address)": {
        "details": "Transfers ownership of the contract to a new account (`newOwner`). Can only be called by the current owner."
      }
    },
    "version": 1
  },
  "userdoc": {
    "kind": "user",
    "methods": {},
    "version": 1
  }
}