{
  "contractName": "Tenet",
  "abi": [
    {
      "inputs": [
        {
          "internalType": "contract TenetToken",
          "name": "_ten",
          "type": "address"
        },
        {
          "internalType": "contract TenetMine",
          "name": "_tenMineCalc",
          "type": "address"
        },
        {
          "internalType": "contract IERC20",
          "name": "_lpTen",
          "type": "address"
        },
        {
          "internalType": "address",
          "name": "_devaddr",
          "type": "address"
        },
        {
          "internalType": "uint256",
          "name": "_allocPointProject",
          "type": "uint256"
        },
        {
          "internalType": "uint256",
          "name": "_allocPointUser",
          "type": "uint256"
        },
        {
          "internalType": "uint256",
          "name": "_devWithdrawStartBlock",
          "type": "uint256"
        },
        {
          "internalType": "uint256",
          "name": "_modifyAllocPointPeriod",
          "type": "uint256"
        },
        {
          "internalType": "uint256",
          "name": "_bonusAllocPointBlock",
          "type": "uint256"
        },
        {
          "internalType": "uint256",
          "name": "_minProjectUserCount",
          "type": "uint256"
        }
      ],
      "stateMutability": "nonpayable",
      "type": "constructor"
    },
    {
      "anonymous": false,
      "inputs": [
        {
          "indexed": true,
          "internalType": "address",
          "name": "user",
          "type": "address"
        },
        {
          "indexed": true,
          "internalType": "uint256",
          "name": "pid",
          "type": "uint256"
        },
        {
          "indexed": false,
          "internalType": "uint256",
          "name": "tokenAmount",
          "type": "uint256"
        },
        {
          "indexed": false,
          "internalType": "uint256",
          "name": "lpTenAmount",
          "type": "uint256"
        }
      ],
      "name": "AddPool",
      "type": "event"
    },
    {
      "anonymous": false,
      "inputs": [
        {
          "indexed": true,
          "internalType": "address",
          "name": "user",
          "type": "address"
        },
        {
          "indexed": true,
          "internalType": "uint256",
          "name": "pid",
          "type": "uint256"
        },
        {
          "indexed": false,
          "internalType": "uint256",
          "name": "amount",
          "type": "uint256"
        }
      ],
      "name": "Deposit",
      "type": "event"
    },
    {
      "anonymous": false,
      "inputs": [
        {
          "indexed": true,
          "internalType": "address",
          "name": "user",
          "type": "address"
        },
        {
          "indexed": true,
          "internalType": "uint256",
          "name": "pid",
          "type": "uint256"
        },
        {
          "indexed": false,
          "internalType": "uint256",
          "name": "amount",
          "type": "uint256"
        }
      ],
      "name": "DepositLPTen",
      "type": "event"
    },
    {
      "anonymous": false,
      "inputs": [
        {
          "indexed": true,
          "internalType": "address",
          "name": "user",
          "type": "address"
        },
        {
          "indexed": true,
          "internalType": "uint256",
          "name": "pid",
          "type": "uint256"
        },
        {
          "indexed": false,
          "internalType": "uint256",
          "name": "amount",
          "type": "uint256"
        }
      ],
      "name": "DepositToken",
      "type": "event"
    },
    {
      "anonymous": false,
      "inputs": [
        {
          "indexed": true,
          "internalType": "address",
          "name": "user",
          "type": "address"
        },
        {
          "indexed": false,
          "internalType": "uint256",
          "name": "amount",
          "type": "uint256"
        }
      ],
      "name": "DevWithdraw",
      "type": "event"
    },
    {
      "anonymous": false,
      "inputs": [
        {
          "indexed": true,
          "internalType": "address",
          "name": "user",
          "type": "address"
        },
        {
          "indexed": true,
          "internalType": "uint256",
          "name": "pid",
          "type": "uint256"
        },
        {
          "indexed": false,
          "internalType": "uint256",
          "name": "amount",
          "type": "uint256"
        }
      ],
      "name": "EmergencyWithdraw",
      "type": "event"
    },
    {
      "anonymous": false,
      "inputs": [
        {
          "indexed": true,
          "internalType": "address",
          "name": "user",
          "type": "address"
        },
        {
          "indexed": false,
          "internalType": "uint256",
          "name": "amount",
          "type": "uint256"
        }
      ],
      "name": "MineLPTen",
      "type": "event"
    },
    {
      "anonymous": false,
      "inputs": [
        {
          "indexed": true,
          "internalType": "address",
          "name": "user",
          "type": "address"
        },
        {
          "indexed": true,
          "internalType": "uint256",
          "name": "pid",
          "type": "uint256"
        },
        {
          "indexed": false,
          "internalType": "uint256",
          "name": "amountToken",
          "type": "uint256"
        },
        {
          "indexed": false,
          "internalType": "uint256",
          "name": "amountTen",
          "type": "uint256"
        }
      ],
      "name": "MineLPToken",
      "type": "event"
    },
    {
      "anonymous": false,
      "inputs": [
        {
          "indexed": true,
          "internalType": "address",
          "name": "previousOwner",
          "type": "address"
        },
        {
          "indexed": true,
          "internalType": "address",
          "name": "newOwner",
          "type": "address"
        }
      ],
      "name": "OwnershipTransferred",
      "type": "event"
    },
    {
      "anonymous": false,
      "inputs": [
        {
          "indexed": true,
          "internalType": "address",
          "name": "user",
          "type": "address"
        },
        {
          "indexed": true,
          "internalType": "uint256",
          "name": "pid",
          "type": "uint256"
        },
        {
          "indexed": false,
          "internalType": "uint256",
          "name": "amount",
          "type": "uint256"
        }
      ],
      "name": "Withdraw",
      "type": "event"
    },
    {
      "anonymous": false,
      "inputs": [
        {
          "indexed": true,
          "internalType": "address",
          "name": "user",
          "type": "address"
        },
        {
          "indexed": true,
          "internalType": "uint256",
          "name": "pid",
          "type": "uint256"
        },
        {
          "indexed": false,
          "internalType": "uint256",
          "name": "amount",
          "type": "uint256"
        }
      ],
      "name": "WithdrawLPTen",
      "type": "event"
    },
    {
      "inputs": [],
      "name": "MINLPTOKEN_AMOUNT",
      "outputs": [
        {
          "internalType": "uint256",
          "name": "",
          "type": "uint256"
        }
      ],
      "stateMutability": "view",
      "type": "function"
    },
    {
      "inputs": [],
      "name": "addpoolfee",
      "outputs": [
        {
          "internalType": "uint256",
          "name": "",
          "type": "uint256"
        }
      ],
      "stateMutability": "view",
      "type": "function"
    },
    {
      "inputs": [],
      "name": "bonusAllocPointBlock",
      "outputs": [
        {
          "internalType": "uint256",
          "name": "",
          "type": "uint256"
        }
      ],
      "stateMutability": "view",
      "type": "function"
    },
    {
      "inputs": [],
      "name": "devWithdrawStartBlock",
      "outputs": [
        {
          "internalType": "uint256",
          "name": "",
          "type": "uint256"
        }
      ],
      "stateMutability": "view",
      "type": "function"
    },
    {
      "inputs": [],
      "name": "devaddr",
      "outputs": [
        {
          "internalType": "address",
          "name": "",
          "type": "address"
        }
      ],
      "stateMutability": "view",
      "type": "function"
    },
    {
      "inputs": [],
      "name": "devaddrAmount",
      "outputs": [
        {
          "internalType": "uint256",
          "name": "",
          "type": "uint256"
        }
      ],
      "stateMutability": "view",
      "type": "function"
    },
    {
      "inputs": [],
      "name": "lastModifyAllocPointBlock",
      "outputs": [
        {
          "internalType": "uint256",
          "name": "",
          "type": "uint256"
        }
      ],
      "stateMutability": "view",
      "type": "function"
    },
    {
      "inputs": [],
      "name": "lpTokenTen",
      "outputs": [
        {
          "internalType": "contract IERC20",
          "name": "",
          "type": "address"
        }
      ],
      "stateMutability": "view",
      "type": "function"
    },
    {
      "inputs": [],
      "name": "minProjectUserCount",
      "outputs": [
        {
          "internalType": "uint256",
          "name": "",
          "type": "uint256"
        }
      ],
      "stateMutability": "view",
      "type": "function"
    },
    {
      "inputs": [],
      "name": "modifyAllocPointPeriod",
      "outputs": [
        {
          "internalType": "uint256",
          "name": "",
          "type": "uint256"
        }
      ],
      "stateMutability": "view",
      "type": "function"
    },
    {
      "inputs": [],
      "name": "owner",
      "outputs": [
        {
          "internalType": "address",
          "name": "",
          "type": "address"
        }
      ],
      "stateMutability": "view",
      "type": "function"
    },
    {
      "inputs": [
        {
          "internalType": "uint256",
          "name": "",
          "type": "uint256"
        }
      ],
      "name": "poolInfo",
      "outputs": [
        {
          "internalType": "contract IERC20",
          "name": "lpToken",
          "type": "address"
        },
        {
          "internalType": "contract IERC20",
          "name": "tokenAddr",
          "type": "address"
        },
        {
          "internalType": "uint256",
          "name": "lastRewardBlock",
          "type": "uint256"
        },
        {
          "internalType": "uint256",
          "name": "lpTokenTotalAmount",
          "type": "uint256"
        },
        {
          "internalType": "uint256",
          "name": "accTokenPerShare",
          "type": "uint256"
        },
        {
          "internalType": "uint256",
          "name": "accTenPerShare",
          "type": "uint256"
        },
        {
          "internalType": "address",
          "name": "projectAddr",
          "type": "address"
        },
        {
          "internalType": "uint256",
          "name": "tokenAmount",
          "type": "uint256"
        },
        {
          "internalType": "uint256",
          "name": "startBlock",
          "type": "uint256"
        },
        {
          "internalType": "uint256",
          "name": "endBlock",
          "type": "uint256"
        },
        {
          "internalType": "uint256",
          "name": "tokenPerBlock",
          "type": "uint256"
        },
        {
          "internalType": "uint256",
          "name": "tokenBonusEndBlock",
          "type": "uint256"
        },
        {
          "internalType": "uint256",
          "name": "tokenBonusMultipler",
          "type": "uint256"
        },
        {
          "internalType": "uint256",
          "name": "userCount",
          "type": "uint256"
        }
      ],
      "stateMutability": "view",
      "type": "function"
    },
    {
      "inputs": [],
      "name": "renounceOwnership",
      "outputs": [],
      "stateMutability": "nonpayable",
      "type": "function"
    },
    {
      "inputs": [],
      "name": "swaplptoken",
      "outputs": [
        {
          "internalType": "contract ISwapChef",
          "name": "",
          "type": "address"
        }
      ],
      "stateMutability": "view",
      "type": "function"
    },
    {
      "inputs": [],
      "name": "ten",
      "outputs": [
        {
          "internalType": "contract TenetToken",
          "name": "",
          "type": "address"
        }
      ],
      "stateMutability": "view",
      "type": "function"
    },
    {
      "inputs": [],
      "name": "tenMineCalc",
      "outputs": [
        {
          "internalType": "contract TenetMine",
          "name": "",
          "type": "address"
        }
      ],
      "stateMutability": "view",
      "type": "function"
    },
    {
      "inputs": [],
      "name": "tenProjectPool",
      "outputs": [
        {
          "internalType": "uint256",
          "name": "lastRewardBlock",
          "type": "uint256"
        },
        {
          "internalType": "uint256",
          "name": "accTenPerShare",
          "type": "uint256"
        },
        {
          "internalType": "uint256",
          "name": "allocPoint",
          "type": "uint256"
        },
        {
          "internalType": "uint256",
          "name": "lpTokenTotalAmount",
          "type": "uint256"
        }
      ],
      "stateMutability": "view",
      "type": "function"
    },
    {
      "inputs": [],
      "name": "tenUserPool",
      "outputs": [
        {
          "internalType": "uint256",
          "name": "lastRewardBlock",
          "type": "uint256"
        },
        {
          "internalType": "uint256",
          "name": "accTenPerShare",
          "type": "uint256"
        },
        {
          "internalType": "uint256",
          "name": "allocPoint",
          "type": "uint256"
        },
        {
          "internalType": "uint256",
          "name": "lpTokenTotalAmount",
          "type": "uint256"
        }
      ],
      "stateMutability": "view",
      "type": "function"
    },
    {
      "inputs": [],
      "name": "totalAllocPoint",
      "outputs": [
        {
          "internalType": "uint256",
          "name": "",
          "type": "uint256"
        }
      ],
      "stateMutability": "view",
      "type": "function"
    },
    {
      "inputs": [
        {
          "internalType": "address",
          "name": "newOwner",
          "type": "address"
        }
      ],
      "name": "transferOwnership",
      "outputs": [],
      "stateMutability": "nonpayable",
      "type": "function"
    },
    {
      "inputs": [],
      "name": "updateBlock",
      "outputs": [
        {
          "internalType": "uint256",
          "name": "",
          "type": "uint256"
        }
      ],
      "stateMutability": "view",
      "type": "function"
    },
    {
      "inputs": [
        {
          "internalType": "uint256",
          "name": "",
          "type": "uint256"
        },
        {
          "internalType": "address",
          "name": "",
          "type": "address"
        }
      ],
      "name": "userInfo",
      "outputs": [
        {
          "internalType": "uint256",
          "name": "amount",
          "type": "uint256"
        },
        {
          "internalType": "uint256",
          "name": "rewardTokenDebt",
          "type": "uint256"
        },
        {
          "internalType": "uint256",
          "name": "rewardTenDebt",
          "type": "uint256"
        }
      ],
      "stateMutability": "view",
      "type": "function"
    },
    {
      "inputs": [
        {
          "internalType": "uint256",
          "name": "",
          "type": "uint256"
        }
      ],
      "name": "userInfoProjectPool",
      "outputs": [
        {
          "internalType": "uint256",
          "name": "amount",
          "type": "uint256"
        },
        {
          "internalType": "uint256",
          "name": "rewardTenDebt",
          "type": "uint256"
        }
      ],
      "stateMutability": "view",
      "type": "function"
    },
    {
      "inputs": [
        {
          "internalType": "address",
          "name": "",
          "type": "address"
        }
      ],
      "name": "userInfoUserPool",
      "outputs": [
        {
          "internalType": "uint256",
          "name": "amount",
          "type": "uint256"
        },
        {
          "internalType": "uint256",
          "name": "rewardTokenDebt",
          "type": "uint256"
        },
        {
          "internalType": "uint256",
          "name": "rewardTenDebt",
          "type": "uint256"
        }
      ],
      "stateMutability": "view",
      "type": "function"
    },
    {
      "inputs": [],
      "name": "poolLength",
      "outputs": [
        {
          "internalType": "uint256",
          "name": "",
          "type": "uint256"
        }
      ],
      "stateMutability": "view",
      "type": "function"
    },
    {
      "inputs": [
        {
          "internalType": "uint256",
          "name": "_updateBlock",
          "type": "uint256"
        }
      ],
      "name": "set_updateContract",
      "outputs": [],
      "stateMutability": "nonpayable",
      "type": "function"
    },
    {
      "inputs": [
        {
          "internalType": "uint256",
          "name": "_addpoolfee",
          "type": "uint256"
        }
      ],
      "name": "set_addPoolFee",
      "outputs": [],
      "stateMutability": "nonpayable",
      "type": "function"
    },
    {
      "inputs": [
        {
          "internalType": "contract ISwapChef",
          "name": "_swaplptoken",
          "type": "address"
        }
      ],
      "name": "set_swap",
      "outputs": [],
      "stateMutability": "nonpayable",
      "type": "function"
    },
    {
      "inputs": [
        {
          "internalType": "uint256",
          "name": "_devWithdrawStartBlock",
          "type": "uint256"
        }
      ],
      "name": "set_devWithdrawStartBlock",
      "outputs": [],
      "stateMutability": "nonpayable",
      "type": "function"
    },
    {
      "inputs": [
        {
          "internalType": "uint256",
          "name": "_allocPointProject",
          "type": "uint256"
        },
        {
          "internalType": "uint256",
          "name": "_allocPointUser",
          "type": "uint256"
        }
      ],
      "name": "set_allocPoint",
      "outputs": [],
      "stateMutability": "nonpayable",
      "type": "function"
    },
    {
      "inputs": [
        {
          "internalType": "contract IERC20",
          "name": "_lpToken",
          "type": "address"
        },
        {
          "internalType": "contract IERC20",
          "name": "_tokenAddr",
          "type": "address"
        },
        {
          "internalType": "uint256",
          "name": "_tokenAmount",
          "type": "uint256"
        },
        {
          "internalType": "uint256",
          "name": "_startBlock",
          "type": "uint256"
        },
        {
          "internalType": "uint256",
          "name": "_endBlockOffset",
          "type": "uint256"
        },
        {
          "internalType": "uint256",
          "name": "_tokenPerBlock",
          "type": "uint256"
        },
        {
          "internalType": "uint256",
          "name": "_tokenBonusEndBlockOffset",
          "type": "uint256"
        },
        {
          "internalType": "uint256",
          "name": "_tokenBonusMultipler",
          "type": "uint256"
        },
        {
          "internalType": "uint256",
          "name": "_lpTenAmount",
          "type": "uint256"
        }
      ],
      "name": "add",
      "outputs": [],
      "stateMutability": "nonpayable",
      "type": "function"
    },
    {
      "inputs": [],
      "name": "updateAllocPoint",
      "outputs": [],
      "stateMutability": "nonpayable",
      "type": "function"
    },
    {
      "inputs": [],
      "name": "updateTenProjectPool",
      "outputs": [],
      "stateMutability": "nonpayable",
      "type": "function"
    },
    {
      "inputs": [
        {
          "internalType": "uint256",
          "name": "_pid",
          "type": "uint256"
        },
        {
          "internalType": "uint256",
          "name": "_amount",
          "type": "uint256"
        }
      ],
      "name": "depositTenByProject",
      "outputs": [],
      "stateMutability": "nonpayable",
      "type": "function"
    },
    {
      "inputs": [
        {
          "internalType": "uint256",
          "name": "_pid",
          "type": "uint256"
        },
        {
          "internalType": "uint256",
          "name": "_amount",
          "type": "uint256"
        }
      ],
      "name": "withdrawTenByProject",
      "outputs": [],
      "stateMutability": "nonpayable",
      "type": "function"
    },
    {
      "inputs": [],
      "name": "updateTenUserPool",
      "outputs": [],
      "stateMutability": "nonpayable",
      "type": "function"
    },
    {
      "inputs": [
        {
          "internalType": "uint256",
          "name": "_amount",
          "type": "uint256"
        }
      ],
      "name": "depositTenByUser",
      "outputs": [],
      "stateMutability": "nonpayable",
      "type": "function"
    },
    {
      "inputs": [
        {
          "internalType": "uint256",
          "name": "_amount",
          "type": "uint256"
        }
      ],
      "name": "withdrawTenByUser",
      "outputs": [],
      "stateMutability": "nonpayable",
      "type": "function"
    },
    {
      "inputs": [],
      "name": "mineLPTen",
      "outputs": [],
      "stateMutability": "nonpayable",
      "type": "function"
    },
    {
      "inputs": [
        {
          "internalType": "uint256",
          "name": "_pid",
          "type": "uint256"
        }
      ],
      "name": "updateLPTokenPool",
      "outputs": [],
      "stateMutability": "nonpayable",
      "type": "function"
    },
    {
      "inputs": [
        {
          "internalType": "uint256",
          "name": "_pid",
          "type": "uint256"
        },
        {
          "internalType": "uint256",
          "name": "_amount",
          "type": "uint256"
        }
      ],
      "name": "depositLPToken",
      "outputs": [],
      "stateMutability": "nonpayable",
      "type": "function"
    },
    {
      "inputs": [
        {
          "internalType": "uint256",
          "name": "_pid",
          "type": "uint256"
        },
        {
          "internalType": "uint256",
          "name": "_amount",
          "type": "uint256"
        }
      ],
      "name": "withdrawLPToken",
      "outputs": [],
      "stateMutability": "nonpayable",
      "type": "function"
    },
    {
      "inputs": [
        {
          "internalType": "uint256",
          "name": "_pid",
          "type": "uint256"
        },
        {
          "internalType": "address",
          "name": "_user",
          "type": "address"
        }
      ],
      "name": "getPoolUser",
      "outputs": [
        {
          "internalType": "uint256",
          "name": "",
          "type": "uint256"
        },
        {
          "internalType": "uint256",
          "name": "",
          "type": "uint256"
        },
        {
          "internalType": "uint256",
          "name": "",
          "type": "uint256"
        }
      ],
      "stateMutability": "view",
      "type": "function"
    },
    {
      "inputs": [
        {
          "internalType": "uint256",
          "name": "_pid",
          "type": "uint256"
        }
      ],
      "name": "mineLPToken",
      "outputs": [],
      "stateMutability": "nonpayable",
      "type": "function"
    },
    {
      "inputs": [
        {
          "internalType": "uint256",
          "name": "_pid",
          "type": "uint256"
        }
      ],
      "name": "emergencyWithdraw",
      "outputs": [],
      "stateMutability": "nonpayable",
      "type": "function"
    },
    {
      "inputs": [
        {
          "internalType": "address",
          "name": "_devaddr",
          "type": "address"
        }
      ],
      "name": "dev",
      "outputs": [],
      "stateMutability": "nonpayable",
      "type": "function"
    },
    {
      "inputs": [
        {
          "internalType": "uint256",
          "name": "_amount",
          "type": "uint256"
        }
      ],
      "name": "devWithdraw",
      "outputs": [],
      "stateMutability": "nonpayable",
      "type": "function"
    },
    {
      "inputs": [
        {
          "internalType": "uint256",
          "name": "_pid",
          "type": "uint256"
        },
        {
          "internalType": "uint256",
          "name": "_token0Amount",
          "type": "uint256"
        },
        {
          "internalType": "uint256",
          "name": "_token1Amount",
          "type": "uint256"
        }
      ],
      "name": "depositToken",
      "outputs": [],
      "stateMutability": "nonpayable",
      "type": "function"
    }
  ],
  "bytecode": "0x60806040523480156200001157600080fd5b5060405162005cae38038062005cae83398181016040526101408110156200003857600080fd5b81019080805190602001909291908051906020019092919080519060200190929190805190602001909291908051906020019092919080519060200190929190805190602001909291908051906020019092919080519060200190929190805190602001909291905050506000620000b56200036460201b60201c565b9050806000806101000a81548173ffffffffffffffffffffffffffffffffffffffff021916908373ffffffffffffffffffffffffffffffffffffffff1602179055508073ffffffffffffffffffffffffffffffffffffffff16600073ffffffffffffffffffffffffffffffffffffffff167f8be0079c531659141344cd1fd0a4f28419497f9722a3daafe3b4186f6b6457e060405160405180910390a35089600160006101000a81548173ffffffffffffffffffffffffffffffffffffffff021916908373ffffffffffffffffffffffffffffffffffffffff16021790555088600260006101000a81548173ffffffffffffffffffffffffffffffffffffffff021916908373ffffffffffffffffffffffffffffffffffffffff16021790555086600460006101000a81548173ffffffffffffffffffffffffffffffffffffffff021916908373ffffffffffffffffffffffffffffffffffffffff16021790555087600360006101000a81548173ffffffffffffffffffffffffffffffffffffffff021916908373ffffffffffffffffffffffffffffffffffffffff16021790555085600f60020181905550846013600201819055508486016008819055506000600581905550836009819055506000600a819055506000600d8190555082600681905550600260009054906101000a900473ffffffffffffffffffffffffffffffffffffffff1673ffffffffffffffffffffffffffffffffffffffff166348cd4cb16040518163ffffffff1660e01b815260040160206040518083038186803b1580156200030357600080fd5b505afa15801562000318573d6000803e3d6000fd5b505050506040513d60208110156200032f57600080fd5b810190808051906020019092919050505060078190555081600b8190555080600c81905550505050505050505050506200036c565b600033905090565b615932806200037c6000396000f3fe608060405234801561001057600080fd5b50600436106102a05760003560e01c806393f1a40b11610167578063d4906f11116100ce578063f2fde38b11610087578063f2fde38b14610b2f578063f4dfd8c714610b73578063f53be3c914610b91578063fac6ae0614610b9b578063faf7444a14610bb9578063ff168bd514610c64576102a0565b8063d4906f1114610a20578063d49e77cd14610a54578063d676a34914610a88578063d694b36114610aa6578063e9dabb0114610ac4578063ef0fe55d14610afc576102a0565b8063aba4d2dc11610120578063aba4d2dc14610904578063b53c183f14610922578063bd54948a14610988578063c00ec006146109a6578063c543c922146109d4578063c5f7624314610a02576102a0565b806393f1a40b146107a4578063950dbd89146108145780639ac5a57114610842578063a14bab3a14610870578063a3606b901461088e578063aa1bc31c146108d0576102a0565b806352316db01161020b578063643ceff9116101c4578063643ceff914610692578063715018a6146106c65780637e51c620146106d0578063897bcc2b146106fe5780638d88a90e1461072c5780638da5cb5b14610770576102a0565b806352316db0146105375780635312ea8e1461056a578063593f33d6146105985780635c9f6bab146105b65780635d916b0b146105ea5780635e61b98414610622576102a0565b806321fe7c851161025d57806321fe7c851461044157806322c4c7b91461044b5780632f74043a146104795780633c362e49146104bd5780633ee7eead146104f5578063475884c2146104ff576102a0565b80630340c465146102a5578063081e3eda146102af5780630d2e2992146102cd5780631526fe271461031657806317caf6f1146103f55780631b95411a14610413575b600080fd5b6102ad610c9c565b005b6102b7610e38565b6040518082815260200191505060405180910390f35b6102f9600480360360208110156102e357600080fd5b8101908080359060200190929190505050610e45565b604051808381526020018281526020019250505060405180910390f35b6103426004803603602081101561032c57600080fd5b8101908080359060200190929190505050610e69565b604051808f73ffffffffffffffffffffffffffffffffffffffff1681526020018e73ffffffffffffffffffffffffffffffffffffffff1681526020018d81526020018c81526020018b81526020018a81526020018973ffffffffffffffffffffffffffffffffffffffff1681526020018881526020018781526020018681526020018581526020018481526020018381526020018281526020019e50505050505050505050505050505060405180910390f35b6103fd610f42565b6040518082815260200191505060405180910390f35b61043f6004803603602081101561042957600080fd5b8101908080359060200190929190505050610f48565b005b610449611401565b005b6104776004803603602081101561046157600080fd5b810190808035906020019092919050505061167e565b005b6104bb6004803603602081101561048f57600080fd5b81019080803573ffffffffffffffffffffffffffffffffffffffff16906020019092919050505061193f565b005b6104f3600480360360408110156104d357600080fd5b810190808035906020019092919080359060200190929190505050611a4b565b005b6104fd611b44565b005b6105356004803603604081101561051557600080fd5b810190808035906020019092919080359060200190929190505050611c73565b005b61053f611fef565b6040518085815260200184815260200183815260200182815260200194505050505060405180910390f35b6105966004803603602081101561058057600080fd5b810190808035906020019092919050505061200d565b005b6105a061218c565b6040518082815260200191505060405180910390f35b6105be612192565b604051808273ffffffffffffffffffffffffffffffffffffffff16815260200191505060405180910390f35b6106206004803603604081101561060057600080fd5b8101908080359060200190929190803590602001909291905050506121b8565b005b61066e6004803603604081101561063857600080fd5b8101908080359060200190929190803573ffffffffffffffffffffffffffffffffffffffff169060200190929190505050612704565b60405180848152602001838152602001828152602001935050505060405180910390f35b61069a612779565b604051808273ffffffffffffffffffffffffffffffffffffffff16815260200191505060405180910390f35b6106ce61279f565b005b6106fc600480360360208110156106e657600080fd5b8101908080359060200190929190505050612925565b005b61072a6004803603602081101561071457600080fd5b81019080803590602001909291905050506129f7565b005b61076e6004803603602081101561074257600080fd5b81019080803573ffffffffffffffffffffffffffffffffffffffff169060200190929190505050612bc6565b005b610778612ccd565b604051808273ffffffffffffffffffffffffffffffffffffffff16815260200191505060405180910390f35b6107f0600480360360408110156107ba57600080fd5b8101908080359060200190929190803573ffffffffffffffffffffffffffffffffffffffff169060200190929190505050612cf6565b60405180848152602001838152602001828152602001935050505060405180910390f35b6108406004803603602081101561082a57600080fd5b8101908080359060200190929190505050612d2d565b005b61086e6004803603602081101561085857600080fd5b8101908080359060200190929190505050612dff565b005b610878612ed1565b6040518082815260200191505060405180910390f35b6108ce600480360360608110156108a457600080fd5b81019080803590602001909291908035906020019092919080359060200190929190505050612ed7565b005b6108d8613302565b604051808273ffffffffffffffffffffffffffffffffffffffff16815260200191505060405180910390f35b61090c613328565b6040518082815260200191505060405180910390f35b6109646004803603602081101561093857600080fd5b81019080803573ffffffffffffffffffffffffffffffffffffffff16906020019092919050505061332e565b60405180848152602001838152602001828152602001935050505060405180910390f35b610990613358565b6040518082815260200191505060405180910390f35b6109d2600480360360208110156109bc57600080fd5b810190808035906020019092919050505061335e565b005b610a00600480360360208110156109ea57600080fd5b8101908080359060200190929190505050613597565b005b610a0a613883565b6040518082815260200191505060405180910390f35b610a2861388c565b604051808273ffffffffffffffffffffffffffffffffffffffff16815260200191505060405180910390f35b610a5c6138b2565b604051808273ffffffffffffffffffffffffffffffffffffffff16815260200191505060405180910390f35b610a906138d8565b6040518082815260200191505060405180910390f35b610aae6138de565b6040518082815260200191505060405180910390f35b610afa60048036036040811015610ada57600080fd5b8101908080359060200190929190803590602001909291905050506138e4565b005b610b04613cd3565b6040518085815260200184815260200183815260200182815260200194505050505060405180910390f35b610b7160048036036020811015610b4557600080fd5b81019080803573ffffffffffffffffffffffffffffffffffffffff169060200190929190505050613cf1565b005b610b7b613efc565b6040518082815260200191505060405180910390f35b610b99613f02565b005b610ba361417f565b6040518082815260200191505060405180910390f35b610c626004803603610120811015610bd057600080fd5b81019080803573ffffffffffffffffffffffffffffffffffffffff169060200190929190803573ffffffffffffffffffffffffffffffffffffffff16906020019092919080359060200190929190803590602001909291908035906020019092919080359060200190929190803590602001909291908035906020019092919080359060200190929190505050614185565b005b610c9a60048036036040811015610c7a57600080fd5b81019080803590602001909291908035906020019092919050505061497d565b005b43610cb4600654600754614e5f90919063ffffffff16565b11610e36576000610d14601360030154610d06612710610cf8610ce4612710600b54614e5f90919063ffffffff16565b600f60030154614ee790919063ffffffff16565b614f6d90919063ffffffff16565b614e5f90919063ffffffff16565b90506000811115610e3457610db16002610da3610d8f84610d81612710610d73610d4b612710600b54614e5f90919063ffffffff16565b610d65612710600f60030154614ee790919063ffffffff16565b614ee790919063ffffffff16565b614f6d90919063ffffffff16565b614f6d90919063ffffffff16565b600f60020154614e5f90919063ffffffff16565b614f6d90919063ffffffff16565b600f60020181905550610e106002610e02610dee84610de0612710601360030154614ee790919063ffffffff16565b614f6d90919063ffffffff16565b601360020154614e5f90919063ffffffff16565b614f6d90919063ffffffff16565b601360020181905550601360020154600f6002015401600881905550436007819055505b505b565b6000600e80549050905090565b60186020528060005260406000206000915090508060000154908060010154905082565b600e8181548110610e7657fe5b90600052602060002090600e02016000915090508060000160009054906101000a900473ffffffffffffffffffffffffffffffffffffffff16908060010160009054906101000a900473ffffffffffffffffffffffffffffffffffffffff16908060020154908060030154908060040154908060050154908060060160009054906101000a900473ffffffffffffffffffffffffffffffffffffffff169080600701549080600801549080600901549080600a01549080600b01549080600c01549080600d015490508e565b60085481565b6000600e8281548110610f5757fe5b90600052602060002090600e0201905080600201544311610f7857506113fe565b6000816003015490506000811415610f98574382600201819055506110e9565b6000600260009054906101000a900473ffffffffffffffffffffffffffffffffffffffff1673ffffffffffffffffffffffffffffffffffffffff1663bf777d91846002015443866009015487600b015488600c01546040518663ffffffff1660e01b8152600401808681526020018581526020018481526020018381526020018281526020019550505050505060206040518083038186803b15801561103d57600080fd5b505afa158015611051573d6000803e3d6000fd5b505050506040513d602081101561106757600080fd5b81019080805190602001909291905050509050600061109384600a015483614ee790919063ffffffff16565b90506110d56110c2846110b464e8d4a5100085614ee790919063ffffffff16565b614f6d90919063ffffffff16565b8560040154614e5f90919063ffffffff16565b846004018190555043846002018190555050505b6110f1613f02565b60006018600085815260200190815260200160002090506000816000015411156113fa576000611160826001015461115264e8d4a51000611144600f600101548760000154614ee790919063ffffffff16565b614f6d90919063ffffffff16565b614fb790919063ffffffff16565b905060008111156113f857600083141561122457600160009054906101000a900473ffffffffffffffffffffffffffffffffffffffff1673ffffffffffffffffffffffffffffffffffffffff16639dc29fac30836040518363ffffffff1660e01b8152600401808373ffffffffffffffffffffffffffffffffffffffff16815260200182815260200192505050600060405180830381600087803b15801561120757600080fd5b505af115801561121b573d6000803e3d6000fd5b505050506113bc565b600c5484600d015410156113735760006112af61124e612710600b54614e5f90919063ffffffff16565b6112a1611292612710611284600c546112768c600d0154600b54614ee790919063ffffffff16565b614f6d90919063ffffffff16565b614e5f90919063ffffffff16565b85614ee790919063ffffffff16565b614f6d90919063ffffffff16565b9050600160009054906101000a900473ffffffffffffffffffffffffffffffffffffffff1673ffffffffffffffffffffffffffffffffffffffff16639dc29fac306113038486614fb790919063ffffffff16565b6040518363ffffffff1660e01b8152600401808373ffffffffffffffffffffffffffffffffffffffff16815260200182815260200192505050600060405180830381600087803b15801561135657600080fd5b505af115801561136a573d6000803e3d6000fd5b50505050809150505b6113b36113a08461139264e8d4a5100085614ee790919063ffffffff16565b614f6d90919063ffffffff16565b8560050154614e5f90919063ffffffff16565b84600501819055505b6113ef64e8d4a510006113e1600f600101548560000154614ee790919063ffffffff16565b614f6d90919063ffffffff16565b82600101819055505b505b5050505b50565b60136000015443116114125761167c565b6000601360030154141561142f574360136000018190555061167c565b6000600d54111561145357600d5443106114525743600f6000018190555061167c565b5b6000600260009054906101000a900473ffffffffffffffffffffffffffffffffffffffff1673ffffffffffffffffffffffffffffffffffffffff1663c03c8107601360000154436040518363ffffffff1660e01b8152600401808381526020018281526020019250505060206040518083038186803b1580156114d557600080fd5b505afa1580156114e9573d6000803e3d6000fd5b505050506040513d60208110156114ff57600080fd5b8101908080519060200190929190505050905061153e60085461153060136002015484614ee790919063ffffffff16565b614f6d90919063ffffffff16565b9050611568611557600a83614f6d90919063ffffffff16565b600554614e5f90919063ffffffff16565b600581905550600160009054906101000a900473ffffffffffffffffffffffffffffffffffffffff1673ffffffffffffffffffffffffffffffffffffffff166340c10f1930836040518363ffffffff1660e01b8152600401808373ffffffffffffffffffffffffffffffffffffffff16815260200182815260200192505050600060405180830381600087803b15801561160157600080fd5b505af1158015611615573d6000803e3d6000fd5b5050505061165f61164b60136003015461163d64e8d4a5100085614ee790919063ffffffff16565b614f6d90919063ffffffff16565b601360010154614e5f90919063ffffffff16565b6013600101819055504360136000018190555061167a610c9c565b505b565b61168781610f48565b6000600e828154811061169657fe5b90600052602060002090600e0201905060006017600084815260200190815260200160002060003373ffffffffffffffffffffffffffffffffffffffff1673ffffffffffffffffffffffffffffffffffffffff16815260200190815260200160002090506000611744826001015461173664e8d4a5100061172887600401548760000154614ee790919063ffffffff16565b614f6d90919063ffffffff16565b614fb790919063ffffffff16565b90508260010160009054906101000a900473ffffffffffffffffffffffffffffffffffffffff1673ffffffffffffffffffffffffffffffffffffffff1663a9059cbb33836040518363ffffffff1660e01b8152600401808373ffffffffffffffffffffffffffffffffffffffff16815260200182815260200192505050602060405180830381600087803b1580156117db57600080fd5b505af11580156117ef573d6000803e3d6000fd5b505050506040513d602081101561180557600080fd5b8101908080519060200190929190505050506000611861836002015461185364e8d4a5100061184588600501548860000154614ee790919063ffffffff16565b614f6d90919063ffffffff16565b614fb790919063ffffffff16565b905061186d3382615001565b61189f64e8d4a5100061189186600401548660000154614ee790919063ffffffff16565b614f6d90919063ffffffff16565b83600101819055506118d964e8d4a510006118cb86600501548660000154614ee790919063ffffffff16565b614f6d90919063ffffffff16565b8360020181905550843373ffffffffffffffffffffffffffffffffffffffff167fa343695db80c5be18700ce2f48033b922ddb8dfbc010288457c2ad1ff4c03bf38484604051808381526020018281526020019250505060405180910390a35050505050565b61194761527a565b73ffffffffffffffffffffffffffffffffffffffff1660008054906101000a900473ffffffffffffffffffffffffffffffffffffffff1673ffffffffffffffffffffffffffffffffffffffff1614611a07576040517f08c379a00000000000000000000000000000000000000000000000000000000081526004018080602001828103825260208152602001807f4f776e61626c653a2063616c6c6572206973206e6f7420746865206f776e657281525060200191505060405180910390fd5b80601a60006101000a81548173ffffffffffffffffffffffffffffffffffffffff021916908373ffffffffffffffffffffffffffffffffffffffff16021790555050565b611a5361527a565b73ffffffffffffffffffffffffffffffffffffffff1660008054906101000a900473ffffffffffffffffffffffffffffffffffffffff1673ffffffffffffffffffffffffffffffffffffffff1614611b13576040517f08c379a00000000000000000000000000000000000000000000000000000000081526004018080602001828103825260208152602001807f4f776e61626c653a2063616c6c6572206973206e6f7420746865206f776e657281525060200191505060405180910390fd5b611b1b613f02565b611b23611401565b81600f60020181905550806013600201819055508082016008819055505050565b611b4c611401565b6000601960003373ffffffffffffffffffffffffffffffffffffffff1673ffffffffffffffffffffffffffffffffffffffff16815260200190815260200160002090506000611bda8260020154611bcc64e8d4a51000611bbe6013600101548760000154614ee790919063ffffffff16565b614f6d90919063ffffffff16565b614fb790919063ffffffff16565b9050611be63382615001565b611c1964e8d4a51000611c0b6013600101548560000154614ee790919063ffffffff16565b614f6d90919063ffffffff16565b82600201819055503373ffffffffffffffffffffffffffffffffffffffff167f86eafa887d97c9b11a876cc174e5a737b94d2111ecbc79afa3744c8a95423dc1826040518082815260200191505060405180910390a25050565b6000600e8381548110611c8257fe5b90600052602060002090600e0201905060006017600085815260200190815260200160002060003373ffffffffffffffffffffffffffffffffffffffff1673ffffffffffffffffffffffffffffffffffffffff1681526020019081526020016000209050611cef84610f48565b600081600001541115611e76576000611d468260010154611d3864e8d4a51000611d2a87600401548760000154614ee790919063ffffffff16565b614f6d90919063ffffffff16565b614fb790919063ffffffff16565b90508260010160009054906101000a900473ffffffffffffffffffffffffffffffffffffffff1673ffffffffffffffffffffffffffffffffffffffff1663a9059cbb33836040518363ffffffff1660e01b8152600401808373ffffffffffffffffffffffffffffffffffffffff16815260200182815260200192505050602060405180830381600087803b158015611ddd57600080fd5b505af1158015611df1573d6000803e3d6000fd5b505050506040513d6020811015611e0757600080fd5b8101908080519060200190929190505050506000611e638360020154611e5564e8d4a51000611e4788600501548860000154614ee790919063ffffffff16565b614f6d90919063ffffffff16565b614fb790919063ffffffff16565b9050611e6f3382615001565b5050611e97565b611e8e600183600d0154614e5f90919063ffffffff16565b82600d01819055505b611ee83330858560000160009054906101000a900473ffffffffffffffffffffffffffffffffffffffff1673ffffffffffffffffffffffffffffffffffffffff16615282909392919063ffffffff16565b611eff838360030154614e5f90919063ffffffff16565b8260030181905550611f1e838260000154614e5f90919063ffffffff16565b8160000181905550611f5864e8d4a51000611f4a84600401548460000154614ee790919063ffffffff16565b614f6d90919063ffffffff16565b8160010181905550611f9264e8d4a51000611f8484600501548460000154614ee790919063ffffffff16565b614f6d90919063ffffffff16565b8160020181905550833373ffffffffffffffffffffffffffffffffffffffff167f90890809c654f11d6e72a28fa60149770a0d11ec6c92319d6ceb2bb0a4ea1a15856040518082815260200191505060405180910390a350505050565b60138060000154908060010154908060020154908060030154905084565b6000600e828154811061201c57fe5b90600052602060002090600e0201905060006017600084815260200190815260200160002060003373ffffffffffffffffffffffffffffffffffffffff1673ffffffffffffffffffffffffffffffffffffffff16815260200190815260200160002090506120d33382600001548460000160009054906101000a900473ffffffffffffffffffffffffffffffffffffffff1673ffffffffffffffffffffffffffffffffffffffff166153439092919063ffffffff16565b6120ee81600001548360030154614fb790919063ffffffff16565b8260030181905550823373ffffffffffffffffffffffffffffffffffffffff167fbb757047c2b5f3974fe26b7c10f732e7bce710b0952a71082702781e62ae059583600001546040518082815260200191505060405180910390a360008160000181905550600081600101819055506000816002018190555061217f600183600d0154614fb790919063ffffffff16565b82600d0181905550505050565b60095481565b600360009054906101000a900473ffffffffffffffffffffffffffffffffffffffff1681565b6000600e83815481106121c757fe5b90600052602060002090600e020190503373ffffffffffffffffffffffffffffffffffffffff168160060160009054906101000a900473ffffffffffffffffffffffffffffffffffffffff1673ffffffffffffffffffffffffffffffffffffffff161461229c576040517f08c379a000000000000000000000000000000000000000000000000000000000815260040180806020018281038252601e8152602001807f776974686472617754656e427950726f6a6563743a206e6f7420676f6f64000081525060200191505060405180910390fd5b6000601860008581526020019081526020016000209050828160000154101561232d576040517f08c379a000000000000000000000000000000000000000000000000000000000815260040180806020018281038252601e8152602001807f776974686472617754656e427950726f6a6563743a206e6f7420676f6f64000081525060200191505060405180910390fd5b612335613f02565b6000612380826001015461237264e8d4a51000612364600f600101548760000154614ee790919063ffffffff16565b614f6d90919063ffffffff16565b614fb790919063ffffffff16565b905060008111156125e557600083600d0154141561244857600160009054906101000a900473ffffffffffffffffffffffffffffffffffffffff1673ffffffffffffffffffffffffffffffffffffffff16639dc29fac30836040518363ffffffff1660e01b8152600401808373ffffffffffffffffffffffffffffffffffffffff16815260200182815260200192505050600060405180830381600087803b15801561242b57600080fd5b505af115801561243f573d6000803e3d6000fd5b505050506125e4565b600c5483600d015410156125975760006124d3612472612710600b54614e5f90919063ffffffff16565b6124c56124b66127106124a8600c5461249a8b600d0154600b54614ee790919063ffffffff16565b614f6d90919063ffffffff16565b614e5f90919063ffffffff16565b85614ee790919063ffffffff16565b614f6d90919063ffffffff16565b9050600160009054906101000a900473ffffffffffffffffffffffffffffffffffffffff1673ffffffffffffffffffffffffffffffffffffffff16639dc29fac306125278486614fb790919063ffffffff16565b6040518363ffffffff1660e01b8152600401808373ffffffffffffffffffffffffffffffffffffffff16815260200182815260200192505050600060405180830381600087803b15801561257a57600080fd5b505af115801561258e573d6000803e3d6000fd5b50505050809150505b6125db6125c884600301546125ba64e8d4a5100085614ee790919063ffffffff16565b614f6d90919063ffffffff16565b8460050154614e5f90919063ffffffff16565b83600501819055505b5b6125fc848360000154614fb790919063ffffffff16565b826000018190555061263764e8d4a51000612629600f600101548560000154614ee790919063ffffffff16565b614f6d90919063ffffffff16565b826001018190555061268c3385600360009054906101000a900473ffffffffffffffffffffffffffffffffffffffff1673ffffffffffffffffffffffffffffffffffffffff166153439092919063ffffffff16565b6126a484600f60030154614fb790919063ffffffff16565b600f6003018190555060013373ffffffffffffffffffffffffffffffffffffffff167ff7667e87dc74c9460a81d1327bee855fc539b7df9552f5e7e8b61ab971bf566b866040518082815260200191505060405180910390a35050505050565b6000806000806017600087815260200190815260200160002060008673ffffffffffffffffffffffffffffffffffffffff1673ffffffffffffffffffffffffffffffffffffffff1681526020019081526020016000209050806000015481600101548260020154935093509350509250925092565b600160009054906101000a900473ffffffffffffffffffffffffffffffffffffffff1681565b6127a761527a565b73ffffffffffffffffffffffffffffffffffffffff1660008054906101000a900473ffffffffffffffffffffffffffffffffffffffff1673ffffffffffffffffffffffffffffffffffffffff1614612867576040517f08c379a00000000000000000000000000000000000000000000000000000000081526004018080602001828103825260208152602001807f4f776e61626c653a2063616c6c6572206973206e6f7420746865206f776e657281525060200191505060405180910390fd5b600073ffffffffffffffffffffffffffffffffffffffff1660008054906101000a900473ffffffffffffffffffffffffffffffffffffffff1673ffffffffffffffffffffffffffffffffffffffff167f8be0079c531659141344cd1fd0a4f28419497f9722a3daafe3b4186f6b6457e060405160405180910390a360008060006101000a81548173ffffffffffffffffffffffffffffffffffffffff021916908373ffffffffffffffffffffffffffffffffffffffff160217905550565b61292d61527a565b73ffffffffffffffffffffffffffffffffffffffff1660008054906101000a900473ffffffffffffffffffffffffffffffffffffffff1673ffffffffffffffffffffffffffffffffffffffff16146129ed576040517f08c379a00000000000000000000000000000000000000000000000000000000081526004018080602001828103825260208152602001807f4f776e61626c653a2063616c6c6572206973206e6f7420746865206f776e657281525060200191505060405180910390fd5b80600a8190555050565b6000601960003373ffffffffffffffffffffffffffffffffffffffff1673ffffffffffffffffffffffffffffffffffffffff1681526020019081526020016000209050612a42611401565b600081600001541115612aa8576000612a9a8260020154612a8c64e8d4a51000612a7e6013600101548760000154614ee790919063ffffffff16565b614f6d90919063ffffffff16565b614fb790919063ffffffff16565b9050612aa63382615001565b505b612af7333084600360009054906101000a900473ffffffffffffffffffffffffffffffffffffffff1673ffffffffffffffffffffffffffffffffffffffff16615282909392919063ffffffff16565b612b0f82601360030154614e5f90919063ffffffff16565b601360030181905550612b2f828260000154614e5f90919063ffffffff16565b8160000181905550612b6a64e8d4a51000612b5c6013600101548460000154614ee790919063ffffffff16565b614f6d90919063ffffffff16565b816002018190555060023373ffffffffffffffffffffffffffffffffffffffff167f4cb92f83c35c717fc7bd658a9c9614e4e97003443774c298e4d75e34a11658d0846040518082815260200191505060405180910390a35050565b600460009054906101000a900473ffffffffffffffffffffffffffffffffffffffff1673ffffffffffffffffffffffffffffffffffffffff163373ffffffffffffffffffffffffffffffffffffffff1614612c89576040517f08c379a00000000000000000000000000000000000000000000000000000000081526004018080602001828103825260098152602001807f6465763a207775743f000000000000000000000000000000000000000000000081525060200191505060405180910390fd5b80600460006101000a81548173ffffffffffffffffffffffffffffffffffffffff021916908373ffffffffffffffffffffffffffffffffffffffff16021790555050565b60008060009054906101000a900473ffffffffffffffffffffffffffffffffffffffff16905090565b6017602052816000526040600020602052806000526040600020600091509150508060000154908060010154908060020154905083565b612d3561527a565b73ffffffffffffffffffffffffffffffffffffffff1660008054906101000a900473ffffffffffffffffffffffffffffffffffffffff1673ffffffffffffffffffffffffffffffffffffffff1614612df5576040517f08c379a00000000000000000000000000000000000000000000000000000000081526004018080602001828103825260208152602001807f4f776e61626c653a2063616c6c6572206973206e6f7420746865206f776e657281525060200191505060405180910390fd5b8060098190555050565b612e0761527a565b73ffffffffffffffffffffffffffffffffffffffff1660008054906101000a900473ffffffffffffffffffffffffffffffffffffffff1673ffffffffffffffffffffffffffffffffffffffff1614612ec7576040517f08c379a00000000000000000000000000000000000000000000000000000000081526004018080602001828103825260208152602001807f4f776e61626c653a2063616c6c6572206973206e6f7420746865206f776e657281525060200191505060405180910390fd5b80600d8190555050565b600b5481565b6000600e8481548110612ee657fe5b90600052602060002090600e020190506000601a60009054906101000a900473ffffffffffffffffffffffffffffffffffffffff1673ffffffffffffffffffffffffffffffffffffffff16639f1d0f598360000160009054906101000a900473ffffffffffffffffffffffffffffffffffffffff1686866040518463ffffffff1660e01b8152600401808473ffffffffffffffffffffffffffffffffffffffff1681526020018381526020018281526020019350505050602060405180830381600087803b158015612fb757600080fd5b505af1158015612fcb573d6000803e3d6000fd5b505050506040513d6020811015612fe157600080fd5b8101908080519060200190929190505050905060006017600087815260200190815260200160002060003373ffffffffffffffffffffffffffffffffffffffff1673ffffffffffffffffffffffffffffffffffffffff168152602001908152602001600020905061305186610f48565b6000816000015411156131d85760006130a8826001015461309a64e8d4a5100061308c88600401548760000154614ee790919063ffffffff16565b614f6d90919063ffffffff16565b614fb790919063ffffffff16565b90508360010160009054906101000a900473ffffffffffffffffffffffffffffffffffffffff1673ffffffffffffffffffffffffffffffffffffffff1663a9059cbb33836040518363ffffffff1660e01b8152600401808373ffffffffffffffffffffffffffffffffffffffff16815260200182815260200192505050602060405180830381600087803b15801561313f57600080fd5b505af1158015613153573d6000803e3d6000fd5b505050506040513d602081101561316957600080fd5b81019080805190602001909291905050505060006131c583600201546131b764e8d4a510006131a989600501548860000154614ee790919063ffffffff16565b614f6d90919063ffffffff16565b614fb790919063ffffffff16565b90506131d13382615001565b50506131f9565b6131f0600184600d0154614e5f90919063ffffffff16565b83600d01819055505b613210828460030154614e5f90919063ffffffff16565b836003018190555061322f828260000154614e5f90919063ffffffff16565b816000018190555061326964e8d4a5100061325b85600401548460000154614ee790919063ffffffff16565b614f6d90919063ffffffff16565b81600101819055506132a364e8d4a5100061329585600501548460000154614ee790919063ffffffff16565b614f6d90919063ffffffff16565b8160020181905550853373ffffffffffffffffffffffffffffffffffffffff167f22aa98d9903d55438afe5107467c2619fbe070089c4ff9657ab08ae20d21a65e846040518082815260200191505060405180910390a3505050505050565b600260009054906101000a900473ffffffffffffffffffffffffffffffffffffffff1681565b60055481565b60196020528060005260406000206000915090508060000154908060010154908060020154905083565b60065481565b6000601960003373ffffffffffffffffffffffffffffffffffffffff1673ffffffffffffffffffffffffffffffffffffffff1681526020019081526020016000209050818160000154101561341b576040517f08c379a000000000000000000000000000000000000000000000000000000000815260040180806020018281038252601b8152602001807f776974686472617754656e4279557365723a206e6f7420676f6f64000000000081525060200191505060405180910390fd5b613423611401565b600061346e826002015461346064e8d4a510006134526013600101548760000154614ee790919063ffffffff16565b614f6d90919063ffffffff16565b614fb790919063ffffffff16565b905061347a3382615001565b613491838360000154614fb790919063ffffffff16565b82600001819055506134cc64e8d4a510006134be6013600101548560000154614ee790919063ffffffff16565b614f6d90919063ffffffff16565b82600201819055506135213384600360009054906101000a900473ffffffffffffffffffffffffffffffffffffffff1673ffffffffffffffffffffffffffffffffffffffff166153439092919063ffffffff16565b61353983601360030154614fb790919063ffffffff16565b60136003018190555060023373ffffffffffffffffffffffffffffffffffffffff167ff7667e87dc74c9460a81d1327bee855fc539b7df9552f5e7e8b61ab971bf566b856040518082815260200191505060405180910390a3505050565b60095443101561360f576040517f08c379a00000000000000000000000000000000000000000000000000000000081526004018080602001828103825260208152602001807f64657657697468647261773a20737461727420426c6f636b20696e76616c696481525060200191505060405180910390fd5b600460009054906101000a900473ffffffffffffffffffffffffffffffffffffffff1673ffffffffffffffffffffffffffffffffffffffff163373ffffffffffffffffffffffffffffffffffffffff16146136d2576040517f08c379a000000000000000000000000000000000000000000000000000000000815260040180806020018281038252601c8152602001807f64657657697468647261773a206465766164647220696e76616c69640000000081525060200191505060405180910390fd5b80600554101561374a576040517f08c379a000000000000000000000000000000000000000000000000000000000815260040180806020018281038252601b8152602001807f64657657697468647261773a20616d6f756e7420696e76616c6964000000000081525060200191505060405180910390fd5b600160009054906101000a900473ffffffffffffffffffffffffffffffffffffffff1673ffffffffffffffffffffffffffffffffffffffff166340c10f19600460009054906101000a900473ffffffffffffffffffffffffffffffffffffffff16836040518363ffffffff1660e01b8152600401808373ffffffffffffffffffffffffffffffffffffffff16815260200182815260200192505050600060405180830381600087803b1580156137ff57600080fd5b505af1158015613813573d6000803e3d6000fd5b5050505061382c81600554614fb790919063ffffffff16565b6005819055503373ffffffffffffffffffffffffffffffffffffffff167f050d1c64cc22ce461b9bc14f6b73852566da02b03c155242bc63169d1fec42aa826040518082815260200191505060405180910390a250565b6402540be40081565b601a60009054906101000a900473ffffffffffffffffffffffffffffffffffffffff1681565b600460009054906101000a900473ffffffffffffffffffffffffffffffffffffffff1681565b600a5481565b600c5481565b6000600e83815481106138f357fe5b90600052602060002090600e0201905060006017600085815260200190815260200160002060003373ffffffffffffffffffffffffffffffffffffffff1673ffffffffffffffffffffffffffffffffffffffff168152602001908152602001600020905082816000015410156139d1576040517f08c379a00000000000000000000000000000000000000000000000000000000081526004018080602001828103825260198152602001807f77697468647261774c50546f6b656e3a206e6f7420676f6f640000000000000081525060200191505060405180910390fd5b6139da84610f48565b6000613a248260010154613a1664e8d4a51000613a0887600401548760000154614ee790919063ffffffff16565b614f6d90919063ffffffff16565b614fb790919063ffffffff16565b90508260010160009054906101000a900473ffffffffffffffffffffffffffffffffffffffff1673ffffffffffffffffffffffffffffffffffffffff1663a9059cbb33836040518363ffffffff1660e01b8152600401808373ffffffffffffffffffffffffffffffffffffffff16815260200182815260200192505050602060405180830381600087803b158015613abb57600080fd5b505af1158015613acf573d6000803e3d6000fd5b505050506040513d6020811015613ae557600080fd5b8101908080519060200190929190505050506000613b418360020154613b3364e8d4a51000613b2588600501548860000154614ee790919063ffffffff16565b614f6d90919063ffffffff16565b614fb790919063ffffffff16565b9050613b4d3382615001565b613b64858460000154614fb790919063ffffffff16565b8360000181905550613b9e64e8d4a51000613b9086600401548660000154614ee790919063ffffffff16565b614f6d90919063ffffffff16565b8360010181905550613bd864e8d4a51000613bca86600501548660000154614ee790919063ffffffff16565b614f6d90919063ffffffff16565b8360020181905550613c2f33868660000160009054906101000a900473ffffffffffffffffffffffffffffffffffffffff1673ffffffffffffffffffffffffffffffffffffffff166153439092919063ffffffff16565b613c46858560030154614fb790919063ffffffff16565b8460030181905550600083600001541415613c7c57613c73600185600d0154614fb790919063ffffffff16565b84600d01819055505b853373ffffffffffffffffffffffffffffffffffffffff167ff279e6a1f5e320cca91135676d9cb6e44ca8a08c0b88342bcdb1144f6511b568876040518082815260200191505060405180910390a3505050505050565b600f8060000154908060010154908060020154908060030154905084565b613cf961527a565b73ffffffffffffffffffffffffffffffffffffffff1660008054906101000a900473ffffffffffffffffffffffffffffffffffffffff1673ffffffffffffffffffffffffffffffffffffffff1614613db9576040517f08c379a00000000000000000000000000000000000000000000000000000000081526004018080602001828103825260208152602001807f4f776e61626c653a2063616c6c6572206973206e6f7420746865206f776e657281525060200191505060405180910390fd5b600073ffffffffffffffffffffffffffffffffffffffff168173ffffffffffffffffffffffffffffffffffffffff161415613e3f576040517f08c379a000000000000000000000000000000000000000000000000000000000815260040180806020018281038252602681526020018061588c6026913960400191505060405180910390fd5b8073ffffffffffffffffffffffffffffffffffffffff1660008054906101000a900473ffffffffffffffffffffffffffffffffffffffff1673ffffffffffffffffffffffffffffffffffffffff167f8be0079c531659141344cd1fd0a4f28419497f9722a3daafe3b4186f6b6457e060405160405180910390a3806000806101000a81548173ffffffffffffffffffffffffffffffffffffffff021916908373ffffffffffffffffffffffffffffffffffffffff16021790555050565b600d5481565b600f600001544311613f135761417d565b6000600f600301541415613f305743600f6000018190555061417d565b6000600d541115613f5457600d544310613f535743600f6000018190555061417d565b5b6000600260009054906101000a900473ffffffffffffffffffffffffffffffffffffffff1673ffffffffffffffffffffffffffffffffffffffff1663c03c8107600f60000154436040518363ffffffff1660e01b8152600401808381526020018281526020019250505060206040518083038186803b158015613fd657600080fd5b505afa158015613fea573d6000803e3d6000fd5b505050506040513d602081101561400057600080fd5b8101908080519060200190929190505050905061403f600854614031600f6002015484614ee790919063ffffffff16565b614f6d90919063ffffffff16565b9050614069614058600a83614f6d90919063ffffffff16565b600554614e5f90919063ffffffff16565b600581905550600160009054906101000a900473ffffffffffffffffffffffffffffffffffffffff1673ffffffffffffffffffffffffffffffffffffffff166340c10f1930836040518363ffffffff1660e01b8152600401808373ffffffffffffffffffffffffffffffffffffffff16815260200182815260200192505050600060405180830381600087803b15801561410257600080fd5b505af1158015614116573d6000803e3d6000fd5b5050505061416061414c600f6003015461413e64e8d4a5100085614ee790919063ffffffff16565b614f6d90919063ffffffff16565b600f60010154614e5f90919063ffffffff16565b600f6001018190555043600f6000018190555061417b610c9c565b505b565b60075481565b6000861415614192574395505b85431115614208576040517f08c379a00000000000000000000000000000000000000000000000000000000081526004018080602001828103825260178152602001807f6164643a207374617274426c6f636b20696e76616c696400000000000000000081525060200191505060405180910390fd5b8285101561427e576040517f08c379a00000000000000000000000000000000000000000000000000000000081526004018080602001828103825260208152602001807f6164643a20626f6e7573456e64426c6f636b4f666673657420696e76616c696481525060200191505060405180910390fd5b8661436585600260009054906101000a900473ffffffffffffffffffffffffffffffffffffffff1673ffffffffffffffffffffffffffffffffffffffff1663bf777d918a8a8c018b8d018a8e018a6040518663ffffffff1660e01b8152600401808681526020018581526020018481526020018381526020018281526020019550505050505060206040518083038186803b15801561431c57600080fd5b505afa158015614330573d6000803e3d6000fd5b505050506040513d602081101561434657600080fd5b8101908080519060200190929190505050614ee790919063ffffffff16565b11156143d9576040517f08c379a00000000000000000000000000000000000000000000000000000000081526004018080602001828103825260198152602001807f6164643a20746f6b656e20616d6f756e7420696e76616c69640000000000000081525060200191505060405180910390fd5b6000600d54111561445d57600d5443111561445c576040517f08c379a00000000000000000000000000000000000000000000000000000000081526004018080602001828103825260188152602001807f6164643a20757064617465426c6f636b20696e76616c6964000000000000000081525060200191505060405180910390fd5b5b8773ffffffffffffffffffffffffffffffffffffffff166323b872dd33308a6040518463ffffffff1660e01b8152600401808473ffffffffffffffffffffffffffffffffffffffff1681526020018373ffffffffffffffffffffffffffffffffffffffff1681526020018281526020019350505050602060405180830381600087803b1580156144ec57600080fd5b505af1158015614500573d6000803e3d6000fd5b505050506040513d602081101561451657600080fd5b8101908080519060200190929190505050506000600a5411156146d057600160009054906101000a900473ffffffffffffffffffffffffffffffffffffffff1673ffffffffffffffffffffffffffffffffffffffff166323b872dd3330600a546040518463ffffffff1660e01b8152600401808473ffffffffffffffffffffffffffffffffffffffff1681526020018373ffffffffffffffffffffffffffffffffffffffff1681526020018281526020019350505050602060405180830381600087803b1580156145e657600080fd5b505af11580156145fa573d6000803e3d6000fd5b505050506040513d602081101561461057600080fd5b810190808051906020019092919050505050600160009054906101000a900473ffffffffffffffffffffffffffffffffffffffff1673ffffffffffffffffffffffffffffffffffffffff16639dc29fac30600a546040518363ffffffff1660e01b8152600401808373ffffffffffffffffffffffffffffffffffffffff16815260200182815260200192505050600060405180830381600087803b1580156146b757600080fd5b505af11580156146cb573d6000803e3d6000fd5b505050505b6000600e805490509050600e604051806101c001604052808c73ffffffffffffffffffffffffffffffffffffffff1681526020018b73ffffffffffffffffffffffffffffffffffffffff16815260200189431161472d578961472f565b435b81526020016000815260200160008152602001600081526020013373ffffffffffffffffffffffffffffffffffffffff1681526020018a8152602001898152602001888a018152602001878152602001868a018152602001858152602001600081525090806001815401808255809150506001900390600052602060002090600e020160009091909190915060008201518160000160006101000a81548173ffffffffffffffffffffffffffffffffffffffff021916908373ffffffffffffffffffffffffffffffffffffffff16021790555060208201518160010160006101000a81548173ffffffffffffffffffffffffffffffffffffffff021916908373ffffffffffffffffffffffffffffffffffffffff16021790555060408201518160020155606082015181600301556080820151816004015560a0820151816005015560c08201518160060160006101000a81548173ffffffffffffffffffffffffffffffffffffffff021916908373ffffffffffffffffffffffffffffffffffffffff16021790555060e082015181600701556101008201518160080155610120820151816009015561014082015181600a015561016082015181600b015561018082015181600c01556101a082015181600d01555050600082111561491a57614919818361497d565b5b803373ffffffffffffffffffffffffffffffffffffffff167f5d3abca7d5bce1389e59f104ee516f35bed07b6f9644b96b0d87cb844b3be1eb8a85604051808381526020018281526020019250505060405180910390a350505050505050505050565b6000600e838154811061498c57fe5b90600052602060002090600e020190503373ffffffffffffffffffffffffffffffffffffffff168160060160009054906101000a900473ffffffffffffffffffffffffffffffffffffffff1673ffffffffffffffffffffffffffffffffffffffff1614614a61576040517f08c379a000000000000000000000000000000000000000000000000000000000815260040180806020018281038252601d8152602001807f6465706f73697454656e427950726f6a6563743a206e6f7420676f6f6400000081525060200191505060405180910390fd5b6000601860008581526020019081526020016000209050614a80613f02565b600081600001541115614d3f576000614ad88260010154614aca64e8d4a51000614abc600f600101548760000154614ee790919063ffffffff16565b614f6d90919063ffffffff16565b614fb790919063ffffffff16565b90506000811115614d3d57600083600d01541415614ba057600160009054906101000a900473ffffffffffffffffffffffffffffffffffffffff1673ffffffffffffffffffffffffffffffffffffffff16639dc29fac30836040518363ffffffff1660e01b8152600401808373ffffffffffffffffffffffffffffffffffffffff16815260200182815260200192505050600060405180830381600087803b158015614b8357600080fd5b505af1158015614b97573d6000803e3d6000fd5b50505050614d3c565b600c5483600d01541015614cef576000614c2b614bca612710600b54614e5f90919063ffffffff16565b614c1d614c0e612710614c00600c54614bf28b600d0154600b54614ee790919063ffffffff16565b614f6d90919063ffffffff16565b614e5f90919063ffffffff16565b85614ee790919063ffffffff16565b614f6d90919063ffffffff16565b9050600160009054906101000a900473ffffffffffffffffffffffffffffffffffffffff1673ffffffffffffffffffffffffffffffffffffffff16639dc29fac30614c7f8486614fb790919063ffffffff16565b6040518363ffffffff1660e01b8152600401808373ffffffffffffffffffffffffffffffffffffffff16815260200182815260200192505050600060405180830381600087803b158015614cd257600080fd5b505af1158015614ce6573d6000803e3d6000fd5b50505050809150505b614d33614d208460030154614d1264e8d4a5100085614ee790919063ffffffff16565b614f6d90919063ffffffff16565b8460050154614e5f90919063ffffffff16565b83600501819055505b5b505b614d8e333085600360009054906101000a900473ffffffffffffffffffffffffffffffffffffffff1673ffffffffffffffffffffffffffffffffffffffff16615282909392919063ffffffff16565b614da683600f60030154614e5f90919063ffffffff16565b600f60030181905550614dc6838260000154614e5f90919063ffffffff16565b8160000181905550614e0164e8d4a51000614df3600f600101548460000154614ee790919063ffffffff16565b614f6d90919063ffffffff16565b816001018190555060013373ffffffffffffffffffffffffffffffffffffffff167f4cb92f83c35c717fc7bd658a9c9614e4e97003443774c298e4d75e34a11658d0856040518082815260200191505060405180910390a350505050565b600080828401905083811015614edd576040517f08c379a000000000000000000000000000000000000000000000000000000000815260040180806020018281038252601b8152602001807f536166654d6174683a206164646974696f6e206f766572666c6f77000000000081525060200191505060405180910390fd5b8091505092915050565b600080831415614efa5760009050614f67565b6000828402905082848281614f0b57fe5b0414614f62576040517f08c379a00000000000000000000000000000000000000000000000000000000081526004018080602001828103825260218152602001806158b26021913960400191505060405180910390fd5b809150505b92915050565b6000614faf83836040518060400160405280601a81526020017f536166654d6174683a206469766973696f6e206279207a65726f0000000000008152506153e5565b905092915050565b6000614ff983836040518060400160405280601e81526020017f536166654d6174683a207375627472616374696f6e206f766572666c6f7700008152506154ab565b905092915050565b6000600160009054906101000a900473ffffffffffffffffffffffffffffffffffffffff1673ffffffffffffffffffffffffffffffffffffffff166370a08231306040518263ffffffff1660e01b8152600401808273ffffffffffffffffffffffffffffffffffffffff16815260200191505060206040518083038186803b15801561508c57600080fd5b505afa1580156150a0573d6000803e3d6000fd5b505050506040513d60208110156150b657600080fd5b81019080805190602001909291905050509050808211156151a557600160009054906101000a900473ffffffffffffffffffffffffffffffffffffffff1673ffffffffffffffffffffffffffffffffffffffff1663a9059cbb84836040518363ffffffff1660e01b8152600401808373ffffffffffffffffffffffffffffffffffffffff16815260200182815260200192505050602060405180830381600087803b15801561516457600080fd5b505af1158015615178573d6000803e3d6000fd5b505050506040513d602081101561518e57600080fd5b810190808051906020019092919050505050615275565b600160009054906101000a900473ffffffffffffffffffffffffffffffffffffffff1673ffffffffffffffffffffffffffffffffffffffff1663a9059cbb84846040518363ffffffff1660e01b8152600401808373ffffffffffffffffffffffffffffffffffffffff16815260200182815260200192505050602060405180830381600087803b15801561523857600080fd5b505af115801561524c573d6000803e3d6000fd5b505050506040513d602081101561526257600080fd5b8101908080519060200190929190505050505b505050565b600033905090565b61533d846323b872dd60e01b858585604051602401808473ffffffffffffffffffffffffffffffffffffffff1681526020018373ffffffffffffffffffffffffffffffffffffffff1681526020018281526020019350505050604051602081830303815290604052907bffffffffffffffffffffffffffffffffffffffffffffffffffffffff19166020820180517bffffffffffffffffffffffffffffffffffffffffffffffffffffffff838183161783525050505061556b565b50505050565b6153e08363a9059cbb60e01b8484604051602401808373ffffffffffffffffffffffffffffffffffffffff16815260200182815260200192505050604051602081830303815290604052907bffffffffffffffffffffffffffffffffffffffffffffffffffffffff19166020820180517bffffffffffffffffffffffffffffffffffffffffffffffffffffffff838183161783525050505061556b565b505050565b60008083118290615491576040517f08c379a00000000000000000000000000000000000000000000000000000000081526004018080602001828103825283818151815260200191508051906020019080838360005b8381101561545657808201518184015260208101905061543b565b50505050905090810190601f1680156154835780820380516001836020036101000a031916815260200191505b509250505060405180910390fd5b50600083858161549d57fe5b049050809150509392505050565b6000838311158290615558576040517f08c379a00000000000000000000000000000000000000000000000000000000081526004018080602001828103825283818151815260200191508051906020019080838360005b8381101561551d578082015181840152602081019050615502565b50505050905090810190601f16801561554a5780820380516001836020036101000a031916815260200191505b509250505060405180910390fd5b5060008385039050809150509392505050565b60606155cd826040518060400160405280602081526020017f5361666545524332303a206c6f772d6c6576656c2063616c6c206661696c65648152508573ffffffffffffffffffffffffffffffffffffffff1661565a9092919063ffffffff16565b9050600081511115615655578080602001905160208110156155ee57600080fd5b8101908080519060200190929190505050615654576040517f08c379a000000000000000000000000000000000000000000000000000000000815260040180806020018281038252602a8152602001806158d3602a913960400191505060405180910390fd5b5b505050565b60606156698484600085615672565b90509392505050565b606061567d85615878565b6156ef576040517f08c379a000000000000000000000000000000000000000000000000000000000815260040180806020018281038252601d8152602001807f416464726573733a2063616c6c20746f206e6f6e2d636f6e747261637400000081525060200191505060405180910390fd5b600060608673ffffffffffffffffffffffffffffffffffffffff1685876040518082805190602001908083835b6020831061573f578051825260208201915060208101905060208303925061571c565b6001836020036101000a03801982511681845116808217855250505050505090500191505060006040518083038185875af1925050503d80600081146157a1576040519150601f19603f3d011682016040523d82523d6000602084013e6157a6565b606091505b509150915081156157bb578092505050615870565b6000815111156157ce5780518082602001fd5b836040517f08c379a00000000000000000000000000000000000000000000000000000000081526004018080602001828103825283818151815260200191508051906020019080838360005b8381101561583557808201518184015260208101905061581a565b50505050905090810190601f1680156158625780820380516001836020036101000a031916815260200191505b509250505060405180910390fd5b949350505050565b600080823b90506000811191505091905056fe4f776e61626c653a206e6577206f776e657220697320746865207a65726f2061646472657373536166654d6174683a206d756c7469706c69636174696f6e206f766572666c6f775361666545524332303a204552433230206f7065726174696f6e20646964206e6f742073756363656564a2646970667358221220e549fcc709c292f76dad854054f4de4c90fd36a45910a6a5e1677f3fdc539eb764736f6c634300060c0033",
  "immutableReferences": {},
  "source": "// SPDX-License-Identifier: MIT\n\npragma solidity 0.6.12;\n\n\nimport \"./openzeppelin/contracts/token/ERC20/IERC20.sol\";\nimport \"./openzeppelin/contracts/token/ERC20/SafeERC20.sol\";\nimport \"./openzeppelin/contracts/utils/EnumerableSet.sol\";\nimport \"./openzeppelin/contracts/math/SafeMath.sol\";\nimport \"./openzeppelin/contracts/access/Ownable.sol\";\nimport \"./TenetToken.sol\";\nimport \"./TenetMine.sol\";\ninterface ISwapChef {\n    // ,lptoken,\n    // 1.2,lptoken\n    // 2.,token,lptoken\n    function swap(IERC20 lpToken,uint256 token0Amount,uint256 token1Amount) external returns (uint256);\n}\n// Tenet is the master of TEN. He can make TEN and he is a fair guy.\ncontract Tenet is Ownable {\n    using SafeMath for uint256;\n    using SafeERC20 for IERC20;\n\n    // Info of each user.\n    struct UserInfo {\n        uint256 amount;     // lptoken\n        uint256 rewardTokenDebt; // lptokentoken\n        uint256 rewardTenDebt; // lptokenTEN\n    }\n    struct ProjectInfo {\n        uint256 amount;     // lpten\n        uint256 rewardTenDebt; // lptenTEN\n    }\n    // Info of each pool.\n    struct PoolInfo {\n        IERC20 lpToken;           // lptoken\n        IERC20 tokenAddr;// token\n        uint256 lastRewardBlock;  // token\n        uint256 lpTokenTotalAmount;// lptoken\n        uint256 accTokenPerShare; // lptokentoken\n        uint256 accTenPerShare; // lptokenTEN\n        address projectAddr;// pool\n        uint256 tokenAmount;// token\n        uint256 startBlock;// token\n        uint256 endBlock;// token\n        uint256 tokenPerBlock;// token\n        uint256 tokenBonusEndBlock;// token\n        uint256 tokenBonusMultipler;// \n        uint256 userCount;// \n    }\n\n    struct TenPoolInfo {\n        uint256 lastRewardBlock;  // TEN\n        uint256 accTenPerShare; // lptenTEN\n        uint256 allocPoint;// TEN  allocPoint/totalAllocPoint\n        uint256 lpTokenTotalAmount;// lpten\n    }\n\n    // The TEN TOKEN!\n    TenetToken public ten;\n     // \n    TenetMine public tenMineCalc;\n    // uniswaplpToken:Ten/ETH  \n    IERC20 public lpTokenTen;            \n    // Dev address.\n    address public devaddr;\n    // TEN\n    uint256 public devaddrAmount;\n    //\n    uint256 public modifyAllocPointPeriod;\n    //\n    uint256 public lastModifyAllocPointBlock;\n    //  \n    uint256 public totalAllocPoint;\n    // dev withdraw TEN tokens start block.\n    uint256 public devWithdrawStartBlock;\n    // add pool fee use TEN\n    uint256 public addpoolfee;\n    //,,:20%,2000\n    uint256 public bonusAllocPointBlock;\n    //\n    uint256 public minProjectUserCount;\n\n    uint256 public updateBlock;\n    uint256 public constant MINLPTOKEN_AMOUNT = 10000000000;\n    // Info of each pool.\n    PoolInfo[] public poolInfo;// lptoken\n    TenPoolInfo public tenProjectPool;// TENlpten\n    TenPoolInfo public tenUserPool;// TENlpten\n    // Info of each user that stakes LP tokens.\n    mapping (uint256 => mapping (address => UserInfo)) public userInfo;// mapping( poolid => mapping ( => UserInfo) )\n    mapping (uint256 => ProjectInfo) public userInfoProjectPool;// pool pid->ProjectInfo\n    mapping (address => UserInfo) public userInfoUserPool;//  ->UserInfo\n\n    ISwapChef public swaplptoken;\n\n    event AddPool(address indexed user, uint256 indexed pid, uint256 tokenAmount,uint256 lpTenAmount);\n    event Deposit(address indexed user, uint256 indexed pid, uint256 amount);\n    event MineLPToken(address indexed user, uint256 indexed pid, uint256 amountToken,uint256 amountTen);    \n    event Withdraw(address indexed user, uint256 indexed pid, uint256 amount);\n    event DepositLPTen(address indexed user, uint256 indexed pid, uint256 amount);\n    event WithdrawLPTen(address indexed user, uint256 indexed pid, uint256 amount);    \n    event MineLPTen(address indexed user, uint256 amount);    \n    event EmergencyWithdraw(address indexed user, uint256 indexed pid, uint256 amount);\n    event DevWithdraw(address indexed user, uint256 amount);\n    event DepositToken(address indexed user, uint256 indexed pid, uint256 amount);\n\n    constructor(\n        TenetToken _ten,\n        TenetMine _tenMineCalc,\n        IERC20 _lpTen,        \n        address _devaddr,\n        uint256 _allocPointProject,\n        uint256 _allocPointUser,\n        uint256 _devWithdrawStartBlock,\n        uint256 _modifyAllocPointPeriod,\n        uint256 _bonusAllocPointBlock,\n        uint256 _minProjectUserCount\n    ) public {\n        ten = _ten;\n        tenMineCalc = _tenMineCalc;\n        devaddr = _devaddr;\n        lpTokenTen = _lpTen;\n        tenProjectPool.allocPoint = _allocPointProject;\n        tenUserPool.allocPoint = _allocPointUser;\n        totalAllocPoint = _allocPointProject + _allocPointUser;\n        devaddrAmount = 0;\n        devWithdrawStartBlock = _devWithdrawStartBlock;\n        addpoolfee = 0;\n        updateBlock = 0;\n        modifyAllocPointPeriod = _modifyAllocPointPeriod;\n        lastModifyAllocPointBlock = tenMineCalc.startBlock();\n        bonusAllocPointBlock = _bonusAllocPointBlock;\n        minProjectUserCount = _minProjectUserCount;\n    }\n\n    function poolLength() external view returns (uint256) {\n        return poolInfo.length;\n    }\n    function set_updateContract(uint256 _updateBlock) public onlyOwner {\n        updateBlock = _updateBlock;\n    }\n    function set_addPoolFee(uint256 _addpoolfee) public onlyOwner {\n        addpoolfee = _addpoolfee;\n    }\n    function set_swap(ISwapChef _swaplptoken) public onlyOwner {\n        swaplptoken = _swaplptoken;\n    }\n    function set_devWithdrawStartBlock(uint256 _devWithdrawStartBlock) public onlyOwner {\n        devWithdrawStartBlock = _devWithdrawStartBlock;\n    }   \n    function set_allocPoint(uint256 _allocPointProject,uint256 _allocPointUser) public onlyOwner {\n        updateTenProjectPool();\n        updateTenUserPool();\n        tenProjectPool.allocPoint = _allocPointProject;\n        tenUserPool.allocPoint = _allocPointUser;\n        totalAllocPoint = _allocPointProject + _allocPointUser;        \n    }\n    // uniswapweb\n    function add(IERC20 _lpToken,\n            IERC20 _tokenAddr,\n            uint256 _tokenAmount,\n            uint256 _startBlock,\n            uint256 _endBlockOffset,\n            uint256 _tokenPerBlock,\n            uint256 _tokenBonusEndBlockOffset,\n            uint256 _tokenBonusMultipler,\n            uint256 _lpTenAmount) public {\n        if(_startBlock == 0){\n            _startBlock = block.number;\n        }\n        require(block.number <= _startBlock, \"add: startBlock invalid\");\n        require(_endBlockOffset >= _tokenBonusEndBlockOffset, \"add: bonusEndBlockOffset invalid\");\n        require(tenMineCalc.getMultiplier(_startBlock,_startBlock + _endBlockOffset,_startBlock + _endBlockOffset,_startBlock + _tokenBonusEndBlockOffset,_tokenBonusMultipler).mul(_tokenPerBlock) <= _tokenAmount, \"add: token amount invalid\");\n        if(updateBlock > 0){\n            require(block.number <= updateBlock, \"add: updateBlock invalid\");\n        }\n        _tokenAddr.transferFrom(msg.sender,address(this), _tokenAmount);\n        if(addpoolfee > 0){\n            ten.transferFrom(msg.sender,address(this), addpoolfee);\n            ten.burn(address(this),addpoolfee);\n        }\n        uint256 pid = poolInfo.length;\n        poolInfo.push(PoolInfo({\n            lpToken: _lpToken,\n            tokenAddr: _tokenAddr,\n            lastRewardBlock: block.number > _startBlock ? block.number : _startBlock,\n            accTokenPerShare: 0,\n            accTenPerShare: 0,\n            lpTokenTotalAmount: 0,\n            projectAddr: msg.sender,\n            tokenAmount:_tokenAmount,\n            startBlock: _startBlock,\n            endBlock: _startBlock + _endBlockOffset,\n            tokenPerBlock: _tokenPerBlock,\n            tokenBonusEndBlock: _startBlock + _tokenBonusEndBlockOffset,\n            tokenBonusMultipler: _tokenBonusMultipler,\n            userCount: 0\n        }));\n        if(_lpTenAmount>0){\n            depositTenByProject(pid,_lpTenAmount);\n        }\n        emit AddPool(msg.sender, pid, _tokenAmount,_lpTenAmount);\n    }\n    function updateAllocPoint() public {\n        if(lastModifyAllocPointBlock.add(modifyAllocPointPeriod) <= block.number){\n            uint256 totalLPTokenAmount = tenProjectPool.lpTokenTotalAmount.mul(bonusAllocPointBlock.add(1e4)).div(1e4).add(tenUserPool.lpTokenTotalAmount);\n            if(totalLPTokenAmount > 0)\n            {\n                tenProjectPool.allocPoint = tenProjectPool.allocPoint.add(tenProjectPool.lpTokenTotalAmount.mul(1e4).mul(bonusAllocPointBlock.add(1e4)).div(1e4).div(totalLPTokenAmount)).div(2);\n                tenUserPool.allocPoint = tenUserPool.allocPoint.add(tenUserPool.lpTokenTotalAmount.mul(1e4).div(totalLPTokenAmount)).div(2);\n                totalAllocPoint = tenProjectPool.allocPoint + tenUserPool.allocPoint;\n                lastModifyAllocPointBlock = block.number;\n            }\n        }     \n    }\n    // Update reward variables of the given pool to be up-to-date.\n    function updateTenProjectPool() public {\n        if (block.number <= tenProjectPool.lastRewardBlock) {\n            return;\n        }\n        if (tenProjectPool.lpTokenTotalAmount == 0) {\n            tenProjectPool.lastRewardBlock = block.number;\n            return;\n        }\n        if(updateBlock > 0){\n            if(block.number >= updateBlock){\n                tenProjectPool.lastRewardBlock = block.number;\n                return;                \n            }\n        }\n        uint256 tenReward = tenMineCalc.calcMineTenReward(tenProjectPool.lastRewardBlock, block.number);\n        tenReward = tenReward.mul(tenProjectPool.allocPoint).div(totalAllocPoint);\n        devaddrAmount = devaddrAmount.add(tenReward.div(10));\n        ten.mint(address(this), tenReward);\n        tenProjectPool.accTenPerShare = tenProjectPool.accTenPerShare.add(tenReward.mul(1e12).div(tenProjectPool.lpTokenTotalAmount));\n        tenProjectPool.lastRewardBlock = block.number;\n        updateAllocPoint();\n    }\n\n    // lpten,ten\n    function depositTenByProject(uint256 _pid,uint256 _amount) public {\n        PoolInfo storage pool = poolInfo[_pid];\n        require(pool.projectAddr == msg.sender, \"depositTenByProject: not good\");\n        ProjectInfo storage project = userInfoProjectPool[_pid];\n        updateTenProjectPool();//lptenTEN\n        if (project.amount > 0) {//TEN\n            uint256 pending = project.amount.mul(tenProjectPool.accTenPerShare).div(1e12).sub(project.rewardTenDebt);\n            if(pending > 0){\n                if(pool.userCount == 0){\n                    ten.burn(address(this),pending);\n                }\n                else{\n                    if(pool.userCount<minProjectUserCount){//,\n                        uint256 newPending = pending.mul(bonusAllocPointBlock.mul(pool.userCount).div(minProjectUserCount).add(1e4)).div(bonusAllocPointBlock.add(1e4));\n                        ten.burn(address(this),pending.sub(newPending));\n                        pending = newPending;\n                    }                    \n                    pool.accTenPerShare = pool.accTenPerShare.add(pending.mul(1e12).div(pool.lpTokenTotalAmount));//TEN,lptokenTEN\n                }\n            }\n        }\n        lpTokenTen.safeTransferFrom(msg.sender, address(this), _amount);\n        tenProjectPool.lpTokenTotalAmount = tenProjectPool.lpTokenTotalAmount.add(_amount);\n        project.amount = project.amount.add(_amount);\n        project.rewardTenDebt = project.amount.mul(tenProjectPool.accTenPerShare).div(1e12);\n        emit DepositLPTen(msg.sender, 1, _amount);\n    }\n\n    // lpten,ten\n    function withdrawTenByProject(uint256 _pid,uint256 _amount) public {\n        PoolInfo storage pool = poolInfo[_pid];\n        require(pool.projectAddr == msg.sender, \"withdrawTenByProject: not good\");\n        ProjectInfo storage project = userInfoProjectPool[_pid];\n        require(project.amount >= _amount, \"withdrawTenByProject: not good\");\n        updateTenProjectPool();//lptenTEN\n        uint256 pending = project.amount.mul(tenProjectPool.accTenPerShare).div(1e12).sub(project.rewardTenDebt);\n        if(pending>0){\n            if(pool.userCount == 0){\n                ten.burn(address(this),pending);\n            }\n            else{\n                if(pool.userCount<minProjectUserCount){//,\n                    uint256 newPending = pending.mul(bonusAllocPointBlock.mul(pool.userCount).div(minProjectUserCount).add(1e4)).div(bonusAllocPointBlock.add(1e4));\n                    ten.burn(address(this),pending.sub(newPending));\n                    pending = newPending;\n                }\n                pool.accTenPerShare = pool.accTenPerShare.add(pending.mul(1e12).div(pool.lpTokenTotalAmount));//TEN,lptokenTEN\n            }\n        }\n        project.amount = project.amount.sub(_amount);\n        project.rewardTenDebt = project.amount.mul(tenProjectPool.accTenPerShare).div(1e12);\n        lpTokenTen.safeTransfer(address(msg.sender), _amount);\n        tenProjectPool.lpTokenTotalAmount = tenProjectPool.lpTokenTotalAmount.sub(_amount);\n        emit WithdrawLPTen(msg.sender, 1, _amount);\n    }\n\n   // TEN,lptenTEN\n    function updateTenUserPool() public {\n        if (block.number <= tenUserPool.lastRewardBlock) {\n            return;\n        }\n        if (tenUserPool.lpTokenTotalAmount == 0) {\n            tenUserPool.lastRewardBlock = block.number;\n            return;\n        }\n        if(updateBlock > 0){\n            if(block.number >= updateBlock){\n                tenProjectPool.lastRewardBlock = block.number;\n                return;                \n            }\n        }        \n        //uint256 multiplier = getMultiplier(tenUserPool.lastRewardBlock, block.number,uint256(-1),bonusEndBlock,bonus_multiplier);\n        //uint256 tenReward = multiplier.mul(tenPerBlock).mul(tenUserPool.allocPoint).div(totalAllocPoint);\n        uint256 tenReward = tenMineCalc.calcMineTenReward(tenUserPool.lastRewardBlock, block.number);\n        tenReward = tenReward.mul(tenUserPool.allocPoint).div(totalAllocPoint);\n        devaddrAmount = devaddrAmount.add(tenReward.div(10));\n        ten.mint(address(this), tenReward);\n        tenUserPool.accTenPerShare = tenUserPool.accTenPerShare.add(tenReward.mul(1e12).div(tenUserPool.lpTokenTotalAmount));\n        tenUserPool.lastRewardBlock = block.number;\n        updateAllocPoint();\n   }\n\n    // lptenTEN\n    function depositTenByUser(uint256 _amount) public {\n        UserInfo storage user = userInfoUserPool[msg.sender];\n        updateTenUserPool();//lptenTEN\n        if (user.amount > 0) {// lptenTEN\n            uint256 pending = user.amount.mul(tenUserPool.accTenPerShare).div(1e12).sub(user.rewardTenDebt);\n            safeTenTransfer(msg.sender, pending);\n        }\n        lpTokenTen.safeTransferFrom(address(msg.sender), address(this), _amount);\n        tenUserPool.lpTokenTotalAmount = tenUserPool.lpTokenTotalAmount.add(_amount);\n        user.amount = user.amount.add(_amount);\n        user.rewardTenDebt = user.amount.mul(tenUserPool.accTenPerShare).div(1e12);\n        emit DepositLPTen(msg.sender, 2, _amount);\n    }\n\n    // lptenTEN\n    function withdrawTenByUser(uint256 _amount) public {\n        UserInfo storage user = userInfoUserPool[msg.sender];\n        require(user.amount >= _amount, \"withdrawTenByUser: not good\");\n        updateTenUserPool();//lptenTEN\n        uint256 pending = user.amount.mul(tenUserPool.accTenPerShare).div(1e12).sub(user.rewardTenDebt);\n        safeTenTransfer(msg.sender, pending);\n        user.amount = user.amount.sub(_amount);\n        user.rewardTenDebt = user.amount.mul(tenUserPool.accTenPerShare).div(1e12);\n        lpTokenTen.safeTransfer(address(msg.sender), _amount);\n        tenUserPool.lpTokenTotalAmount = tenUserPool.lpTokenTotalAmount.sub(_amount);\n        emit WithdrawLPTen(msg.sender, 2, _amount);\n    }\n\n    // lptenTEN\n    function mineLPTen() public {\n        updateTenUserPool();//lptenTEN\n        UserInfo storage user = userInfoUserPool[msg.sender];\n        uint256 pending = user.amount.mul(tenUserPool.accTenPerShare).div(1e12).sub(user.rewardTenDebt);\n        safeTenTransfer(msg.sender, pending);\n        user.rewardTenDebt = user.amount.mul(tenUserPool.accTenPerShare).div(1e12);\n        emit MineLPTen(msg.sender,pending);\n    }\n\n    // Update reward variables of the given pool to be up-to-date.\n    function updateLPTokenPool(uint256 _pid) public {\n        PoolInfo storage pool = poolInfo[_pid];\n        if (block.number <= pool.lastRewardBlock) {\n            return;\n        }\n        uint256 lpSupply = pool.lpTokenTotalAmount;\n        if (lpSupply == 0) {\n            pool.lastRewardBlock = block.number;\n        }\n        else{\n            uint256 multiplier = tenMineCalc.getMultiplier(pool.lastRewardBlock, block.number,pool.endBlock,pool.tokenBonusEndBlock,pool.tokenBonusMultipler);\n            uint256 tokenReward = multiplier.mul(pool.tokenPerBlock);\n            pool.accTokenPerShare = pool.accTokenPerShare.add(tokenReward.mul(1e12).div(lpSupply));\n            pool.lastRewardBlock = block.number;\n        }\n        updateTenProjectPool();//lptenTEN\n        ProjectInfo storage project = userInfoProjectPool[_pid];\n        if (project.amount > 0) {//TEN\n            uint256 pending = project.amount.mul(tenProjectPool.accTenPerShare).div(1e12).sub(project.rewardTenDebt);\n            if(pending>0){\n                if(lpSupply == 0){\n                    ten.burn(address(this),pending);\n                }\n                else{\n                    if(pool.userCount < minProjectUserCount){//,\n                        uint256 newPending = pending.mul(bonusAllocPointBlock.mul(pool.userCount).div(minProjectUserCount).add(1e4)).div(bonusAllocPointBlock.add(1e4));\n                        ten.burn(address(this),pending.sub(newPending));\n                        pending = newPending;\n                    }\n                    pool.accTenPerShare = pool.accTenPerShare.add(pending.mul(1e12).div(lpSupply));//ten,lptokenTEN\n                }\n                project.rewardTenDebt = project.amount.mul(tenProjectPool.accTenPerShare).div(1e12);\n            }\n        }        \n    }\n\n    // Deposit LP tokens to MasterChef for Token And TEN allocation.\n    function depositLPToken(uint256 _pid, uint256 _amount) public {\n        PoolInfo storage pool = poolInfo[_pid];\n        UserInfo storage user = userInfo[_pid][msg.sender];\n        updateLPTokenPool(_pid);\n        if (user.amount > 0) {\n            uint256 pendingToken = user.amount.mul(pool.accTokenPerShare).div(1e12).sub(user.rewardTokenDebt);\n            pool.tokenAddr.transfer(msg.sender, pendingToken);\n            uint256 pendingTen = user.amount.mul(pool.accTenPerShare).div(1e12).sub(user.rewardTenDebt);\n            safeTenTransfer(msg.sender, pendingTen);\n        }else{\n            pool.userCount = pool.userCount.add(1);\n        }\n        pool.lpToken.safeTransferFrom(address(msg.sender), address(this), _amount);\n        pool.lpTokenTotalAmount = pool.lpTokenTotalAmount.add(_amount);\n        user.amount = user.amount.add(_amount);\n        user.rewardTokenDebt = user.amount.mul(pool.accTokenPerShare).div(1e12);\n        user.rewardTenDebt = user.amount.mul(pool.accTenPerShare).div(1e12);\n        emit Deposit(msg.sender, _pid, _amount);\n    }\n\n    // Withdraw LP tokens from MasterChef.\n    function withdrawLPToken(uint256 _pid, uint256 _amount) public {\n        PoolInfo storage pool = poolInfo[_pid];\n        UserInfo storage user = userInfo[_pid][msg.sender];\n        require(user.amount >= _amount, \"withdrawLPToken: not good\");\n        updateLPTokenPool(_pid);\n        uint256 pendingToken = user.amount.mul(pool.accTokenPerShare).div(1e12).sub(user.rewardTokenDebt);\n        pool.tokenAddr.transfer(msg.sender, pendingToken);\n        uint256 pendingTen = user.amount.mul(pool.accTenPerShare).div(1e12).sub(user.rewardTenDebt);\n        safeTenTransfer(msg.sender, pendingTen);\n        user.amount = user.amount.sub(_amount);\n        user.rewardTokenDebt = user.amount.mul(pool.accTokenPerShare).div(1e12);\n        user.rewardTenDebt = user.amount.mul(pool.accTenPerShare).div(1e12);\n        pool.lpToken.safeTransfer(address(msg.sender), _amount);\n        pool.lpTokenTotalAmount = pool.lpTokenTotalAmount.sub(_amount);\n        if(user.amount == 0){\n            pool.userCount = pool.userCount.sub(1);\n        }        \n        emit Withdraw(msg.sender, _pid, _amount);\n    }\n\n    // \n    function getPoolUser(uint256 _pid, address _user) external view returns (uint256,uint256,uint256) {\n        UserInfo storage user = userInfo[_pid][_user];\n        return (user.amount,user.rewardTokenDebt,user.rewardTenDebt);\n    }\n\n    // lptokenTokenTEN\n    function mineLPToken(uint256 _pid) public {\n        updateLPTokenPool(_pid);\n        PoolInfo storage pool = poolInfo[_pid];\n        UserInfo storage user = userInfo[_pid][msg.sender];\n        uint256 pendingToken = user.amount.mul(pool.accTokenPerShare).div(1e12).sub(user.rewardTokenDebt);\n        pool.tokenAddr.transfer(msg.sender, pendingToken);\n        uint256 pendingTen = user.amount.mul(pool.accTenPerShare).div(1e12).sub(user.rewardTenDebt);\n        safeTenTransfer(msg.sender, pendingTen);\n        user.rewardTokenDebt = user.amount.mul(pool.accTokenPerShare).div(1e12);\n        user.rewardTenDebt = user.amount.mul(pool.accTenPerShare).div(1e12);\n        emit MineLPToken(msg.sender, _pid, pendingToken,pendingTen);\n    }\n\n    // Withdraw without caring about rewards. EMERGENCY ONLY.\n    function emergencyWithdraw(uint256 _pid) public {\n        PoolInfo storage pool = poolInfo[_pid];\n        UserInfo storage user = userInfo[_pid][msg.sender];\n        pool.lpToken.safeTransfer(address(msg.sender),user.amount);\n        pool.lpTokenTotalAmount = pool.lpTokenTotalAmount.sub(user.amount);\n        emit EmergencyWithdraw(msg.sender, _pid, user.amount);\n        user.amount = 0;\n        user.rewardTokenDebt = 0;\n        user.rewardTenDebt = 0;\n        pool.userCount = pool.userCount.sub(1);\n    }\n\n    // Update dev address by the previous dev.\n    function dev(address _devaddr) public {\n        require(msg.sender == devaddr, \"dev: wut?\");\n        devaddr = _devaddr;\n    }\n\n    // TEN\n    function devWithdraw(uint256 _amount) public {\n        require(block.number >= devWithdrawStartBlock, \"devWithdraw: start Block invalid\");\n        require(msg.sender == devaddr, \"devWithdraw: devaddr invalid\");\n        require(devaddrAmount >= _amount, \"devWithdraw: amount invalid\");        \n        ten.mint(devaddr,_amount);\n        devaddrAmount = devaddrAmount.sub(_amount);\n        emit DevWithdraw(msg.sender, _amount);\n    }    \n\n    // tokenlptoken,lptoken\n    function depositToken(uint256 _pid, uint256 _token0Amount,uint256 _token1Amount) public {\n        PoolInfo storage pool = poolInfo[_pid];\n        uint256 lpTokenAmount = swaplptoken.swap(pool.lpToken,_token0Amount,_token1Amount);\n        UserInfo storage user = userInfo[_pid][msg.sender];\n        updateLPTokenPool(_pid);\n        if (user.amount > 0) {\n            uint256 pendingToken = user.amount.mul(pool.accTokenPerShare).div(1e12).sub(user.rewardTokenDebt);\n            pool.tokenAddr.transfer(msg.sender, pendingToken);\n            uint256 pendingTen = user.amount.mul(pool.accTenPerShare).div(1e12).sub(user.rewardTenDebt);\n            safeTenTransfer(msg.sender, pendingTen);\n        }else{\n            pool.userCount = pool.userCount.add(1);\n        }\n        //pool.lpToken.safeTransferFrom(address(msg.sender), address(this), _amount);\n        pool.lpTokenTotalAmount = pool.lpTokenTotalAmount.add(lpTokenAmount);\n        user.amount = user.amount.add(lpTokenAmount);\n        user.rewardTokenDebt = user.amount.mul(pool.accTokenPerShare).div(1e12);\n        user.rewardTenDebt = user.amount.mul(pool.accTenPerShare).div(1e12);        \n        emit DepositToken(msg.sender, _pid, lpTokenAmount);        \n    } \n\n    // Safe TEN transfer function, just in case if rounding error causes pool to not have enough TENs.\n    function safeTenTransfer(address _to, uint256 _amount) internal {\n        uint256 bal = ten.balanceOf(address(this));\n        if (_amount > bal) {\n            ten.transfer(_to, bal);\n        } else {\n            ten.transfer(_to, _amount);\n        }\n    }        \n}",
  "sourcePath": "E:\\code\\truffle\\tenet\\contracts\\Tenet.sol",
  "compiler": {
    "name": "solc",
    "version": "0.6.12+commit.27d51765.Emscripten.clang"
  },
  "schemaVersion": "3.2.4",
  "updatedAt": "2020-09-22T04:08:27.052Z",
  "devdoc": {
    "kind": "dev",
    "methods": {
      "owner()": {
        "details": "Returns the address of the current owner."
      },
      "renounceOwnership()": {
        "details": "Leaves the contract without owner. It will not be possible to call `onlyOwner` functions anymore. Can only be called by the current owner. NOTE: Renouncing ownership will leave the contract without an owner, thereby removing any functionality that is only available to the owner."
      },
      "transferOwnership(address)": {
        "details": "Transfers ownership of the contract to a new account (`newOwner`). Can only be called by the current owner."
      }
    },
    "version": 1
  },
  "userdoc": {
    "kind": "user",
    "methods": {},
    "version": 1
  }
}